{
  "contractName": "Zakat",
  "abi": [
    {
      "inputs": [],
      "stateMutability": "nonpayable",
      "type": "constructor"
    },
    {
      "inputs": [
        {
          "internalType": "uint256",
          "name": "",
          "type": "uint256"
        }
      ],
      "name": "zvoice",
      "outputs": [
        {
          "internalType": "address",
          "name": "walletAddress",
          "type": "address"
        },
        {
          "internalType": "string",
          "name": "zakatID",
          "type": "string"
        },
        {
          "internalType": "string",
          "name": "name",
          "type": "string"
        },
        {
          "internalType": "string",
          "name": "email",
          "type": "string"
        },
        {
          "internalType": "string",
          "name": "phoneNum",
          "type": "string"
        },
        {
          "internalType": "uint256",
          "name": "amount",
          "type": "uint256"
        },
        {
          "internalType": "uint256",
          "name": "date",
          "type": "uint256"
        },
        {
          "internalType": "bool",
          "name": "statusPayment",
          "type": "bool"
        },
        {
          "internalType": "string",
          "name": "ipfsHash",
          "type": "string"
        }
      ],
      "stateMutability": "view",
      "type": "function",
      "constant": true
    },
    {
      "inputs": [
        {
          "internalType": "string",
          "name": "_zakatID",
          "type": "string"
        },
        {
          "internalType": "string",
          "name": "_name",
          "type": "string"
        },
        {
          "internalType": "string",
          "name": "_email",
          "type": "string"
        },
        {
          "internalType": "string",
          "name": "_phoneNum",
          "type": "string"
        },
        {
          "internalType": "uint256",
          "name": "_amount",
          "type": "uint256"
        },
        {
          "internalType": "string",
          "name": "_ipfsHash",
          "type": "string"
        }
      ],
      "name": "store",
      "outputs": [],
      "stateMutability": "nonpayable",
      "type": "function"
    },
    {
      "inputs": [
        {
          "internalType": "address",
          "name": "_walletAddress",
          "type": "address"
        }
      ],
      "name": "checkPayment",
      "outputs": [
        {
          "internalType": "bool",
          "name": "",
          "type": "bool"
        }
      ],
      "stateMutability": "view",
      "type": "function",
      "constant": true
    },
    {
      "inputs": [
        {
          "internalType": "string",
          "name": "_ipfsHash",
          "type": "string"
        }
      ],
      "name": "verifyFile",
      "outputs": [
        {
          "internalType": "bool",
          "name": "",
          "type": "bool"
        }
      ],
      "stateMutability": "view",
      "type": "function",
      "constant": true
    },
    {
      "inputs": [],
      "name": "getAll",
      "outputs": [
        {
          "components": [
            {
              "internalType": "address",
              "name": "walletAddress",
              "type": "address"
            },
            {
              "internalType": "string",
              "name": "zakatID",
              "type": "string"
            },
            {
              "internalType": "string",
              "name": "name",
              "type": "string"
            },
            {
              "internalType": "string",
              "name": "email",
              "type": "string"
            },
            {
              "internalType": "string",
              "name": "phoneNum",
              "type": "string"
            },
            {
              "internalType": "uint256",
              "name": "amount",
              "type": "uint256"
            },
            {
              "internalType": "uint256",
              "name": "date",
              "type": "uint256"
            },
            {
              "internalType": "bool",
              "name": "statusPayment",
              "type": "bool"
            },
            {
              "internalType": "string",
              "name": "ipfsHash",
              "type": "string"
            }
          ],
          "internalType": "struct Zakat.ZakatIVC[]",
          "name": "",
          "type": "tuple[]"
        }
      ],
      "stateMutability": "view",
      "type": "function",
      "constant": true
    },
    {
      "inputs": [
        {
          "internalType": "address",
          "name": "_walletAddress",
          "type": "address"
        }
      ],
      "name": "getHistory",
      "outputs": [
        {
          "internalType": "string[]",
          "name": "",
          "type": "string[]"
        },
        {
          "internalType": "uint256[]",
          "name": "",
          "type": "uint256[]"
        },
        {
          "internalType": "uint256[]",
          "name": "",
          "type": "uint256[]"
        },
        {
          "internalType": "string[]",
          "name": "",
          "type": "string[]"
        }
      ],
      "stateMutability": "view",
      "type": "function",
      "constant": true
    }
  ],
  "bytecode": "0x608060405234801561001057600080fd5b5033600160006101000a81548173ffffffffffffffffffffffffffffffffffffffff021916908373ffffffffffffffffffffffffffffffffffffffff16021790555061202c806100616000396000f3fe608060405234801561001057600080fd5b50600436106100625760003560e01c80631c1b2662146100675780633b56fdc61461008357806353ed5143146100b35780635960b81e146100d15780638039681114610109578063b02710231461013c575b600080fd5b610081600480360381019061007c919061133a565b61016c565b005b61009d600480360381019061009891906114b1565b610339565b6040516100aa91906114f9565b60405180910390f35b6100bb610453565b6040516100c89190611763565b60405180910390f35b6100eb60048036038101906100e69190611785565b610888565b6040516101009998979695949392919061181a565b60405180910390f35b610123600480360381019061011e91906114b1565b610bbb565b6040516101339493929190611a3b565b60405180910390f35b61015660048036038101906101519190611a9c565b611092565b60405161016391906114f9565b60405180910390f35b600061017733610339565b905060011515811515146101c0576040517f08c379a00000000000000000000000000000000000000000000000000000000081526004016101b790611b31565b60405180910390fd5b60026040518061012001604052803373ffffffffffffffffffffffffffffffffffffffff16815260200189815260200188815260200187815260200186815260200185815260200142815260200160011515815260200184815250908060018154018082558091505060019003906000526020600020906009020160009091909190915060008201518160000160006101000a81548173ffffffffffffffffffffffffffffffffffffffff021916908373ffffffffffffffffffffffffffffffffffffffff16021790555060208201518160010190816102a09190611d5d565b5060408201518160020190816102b69190611d5d565b5060608201518160030190816102cc9190611d5d565b5060808201518160040190816102e29190611d5d565b5060a0820151816005015560c0820151816006015560e08201518160070160006101000a81548160ff02191690831515021790555061010082015181600801908161032d9190611d5d565b50505050505050505050565b60008060009050600062278d00905060005b60028054905081101561043a578473ffffffffffffffffffffffffffffffffffffffff166002828154811061038357610382611e2f565b5b906000526020600020906009020160000160009054906101000a900473ffffffffffffffffffffffffffffffffffffffff1673ffffffffffffffffffffffffffffffffffffffff16036104275782600282815481106103e5576103e4611e2f565b5b9060005260206000209060090201600601541115610426576002818154811061041157610410611e2f565b5b90600052602060002090600902016006015492505b5b808061043290611e8d565b91505061034b565b508082426104489190611ed5565b101592505050919050565b6060600060028054905067ffffffffffffffff811115610476576104756111d9565b5b6040519080825280602002602001820160405280156104af57816020015b61049c611146565b8152602001906001900390816104945790505b50905060005b60028054905081101561088057600281815481106104d6576104d5611e2f565b5b9060005260206000209060090201604051806101200160405290816000820160009054906101000a900473ffffffffffffffffffffffffffffffffffffffff1673ffffffffffffffffffffffffffffffffffffffff1673ffffffffffffffffffffffffffffffffffffffff16815260200160018201805461055690611b80565b80601f016020809104026020016040519081016040528092919081815260200182805461058290611b80565b80156105cf5780601f106105a4576101008083540402835291602001916105cf565b820191906000526020600020905b8154815290600101906020018083116105b257829003601f168201915b505050505081526020016002820180546105e890611b80565b80601f016020809104026020016040519081016040528092919081815260200182805461061490611b80565b80156106615780601f1061063657610100808354040283529160200191610661565b820191906000526020600020905b81548152906001019060200180831161064457829003601f168201915b5050505050815260200160038201805461067a90611b80565b80601f01602080910402602001604051908101604052809291908181526020018280546106a690611b80565b80156106f35780601f106106c8576101008083540402835291602001916106f3565b820191906000526020600020905b8154815290600101906020018083116106d657829003601f168201915b5050505050815260200160048201805461070c90611b80565b80601f016020809104026020016040519081016040528092919081815260200182805461073890611b80565b80156107855780601f1061075a57610100808354040283529160200191610785565b820191906000526020600020905b81548152906001019060200180831161076857829003601f168201915b5050505050815260200160058201548152602001600682015481526020016007820160009054906101000a900460ff161515151581526020016008820180546107cd90611b80565b80601f01602080910402602001604051908101604052809291908181526020018280546107f990611b80565b80156108465780601f1061081b57610100808354040283529160200191610846565b820191906000526020600020905b81548152906001019060200180831161082957829003601f168201915b50505050508152505082828151811061086257610861611e2f565b5b6020026020010181905250808061087890611e8d565b9150506104b5565b508091505090565b6002818154811061089857600080fd5b90600052602060002090600902016000915090508060000160009054906101000a900473ffffffffffffffffffffffffffffffffffffffff16908060010180546108e190611b80565b80601f016020809104026020016040519081016040528092919081815260200182805461090d90611b80565b801561095a5780601f1061092f5761010080835404028352916020019161095a565b820191906000526020600020905b81548152906001019060200180831161093d57829003601f168201915b50505050509080600201805461096f90611b80565b80601f016020809104026020016040519081016040528092919081815260200182805461099b90611b80565b80156109e85780601f106109bd576101008083540402835291602001916109e8565b820191906000526020600020905b8154815290600101906020018083116109cb57829003601f168201915b5050505050908060030180546109fd90611b80565b80601f0160208091040260200160405190810160405280929190818152602001828054610a2990611b80565b8015610a765780601f10610a4b57610100808354040283529160200191610a76565b820191906000526020600020905b815481529060010190602001808311610a5957829003601f168201915b505050505090806004018054610a8b90611b80565b80601f0160208091040260200160405190810160405280929190818152602001828054610ab790611b80565b8015610b045780601f10610ad957610100808354040283529160200191610b04565b820191906000526020600020905b815481529060010190602001808311610ae757829003601f168201915b5050505050908060050154908060060154908060070160009054906101000a900460ff1690806008018054610b3890611b80565b80601f0160208091040260200160405190810160405280929190818152602001828054610b6490611b80565b8015610bb15780601f10610b8657610100808354040283529160200191610bb1565b820191906000526020600020905b815481529060010190602001808311610b9457829003601f168201915b5050505050905089565b6060806060806000805b600280549050811015610c6c578673ffffffffffffffffffffffffffffffffffffffff1660028281548110610bfd57610bfc611e2f565b5b906000526020600020906009020160000160009054906101000a900473ffffffffffffffffffffffffffffffffffffffff1673ffffffffffffffffffffffffffffffffffffffff1603610c59578180610c5590611e8d565b9250505b8080610c6490611e8d565b915050610bc5565b5060008167ffffffffffffffff811115610c8957610c886111d9565b5b604051908082528060200260200182016040528015610cbc57816020015b6060815260200190600190039081610ca75790505b50905060008267ffffffffffffffff811115610cdb57610cda6111d9565b5b604051908082528060200260200182016040528015610d0e57816020015b6060815260200190600190039081610cf95790505b50905060008367ffffffffffffffff811115610d2d57610d2c6111d9565b5b604051908082528060200260200182016040528015610d5b5781602001602082028036833780820191505090505b50905060008467ffffffffffffffff811115610d7a57610d796111d9565b5b604051908082528060200260200182016040528015610da85781602001602082028036833780820191505090505b5090506000805b600280549050811015611078578b73ffffffffffffffffffffffffffffffffffffffff1660028281548110610de757610de6611e2f565b5b906000526020600020906009020160000160009054906101000a900473ffffffffffffffffffffffffffffffffffffffff1673ffffffffffffffffffffffffffffffffffffffff16036110655760028181548110610e4857610e47611e2f565b5b90600052602060002090600902016001018054610e6490611b80565b80601f0160208091040260200160405190810160405280929190818152602001828054610e9090611b80565b8015610edd5780601f10610eb257610100808354040283529160200191610edd565b820191906000526020600020905b815481529060010190602001808311610ec057829003601f168201915b5050505050868381518110610ef557610ef4611e2f565b5b602002602001018190525060028181548110610f1457610f13611e2f565b5b906000526020600020906009020160060154848381518110610f3957610f38611e2f565b5b60200260200101818152505060028181548110610f5957610f58611e2f565b5b906000526020600020906009020160050154838381518110610f7e57610f7d611e2f565b5b60200260200101818152505060028181548110610f9e57610f9d611e2f565b5b90600052602060002090600902016008018054610fba90611b80565b80601f0160208091040260200160405190810160405280929190818152602001828054610fe690611b80565b80156110335780601f1061100857610100808354040283529160200191611033565b820191906000526020600020905b81548152906001019060200180831161101657829003601f168201915b505050505085838151811061104b5761104a611e2f565b5b6020026020010181905250818061106190611e8d565b9250505b808061107090611e8d565b915050610daf565b508483838699509950995099505050505050509193509193565b6000806000905060005b60028054905081101561113c57836040516020016110ba9190611f45565b60405160208183030381529060405280519060200120600282815481106110e4576110e3611e2f565b5b90600052602060002090600902016008016040516020016111059190611fdf565b6040516020818303038152906040528051906020012003611129576001915061113c565b808061113490611e8d565b91505061109c565b5080915050919050565b604051806101200160405280600073ffffffffffffffffffffffffffffffffffffffff168152602001606081526020016060815260200160608152602001606081526020016000815260200160008152602001600015158152602001606081525090565b6000604051905090565b600080fd5b600080fd5b600080fd5b600080fd5b6000601f19601f8301169050919050565b7f4e487b7100000000000000000000000000000000000000000000000000000000600052604160045260246000fd5b611211826111c8565b810181811067ffffffffffffffff821117156112305761122f6111d9565b5b80604052505050565b60006112436111aa565b905061124f8282611208565b919050565b600067ffffffffffffffff82111561126f5761126e6111d9565b5b611278826111c8565b9050602081019050919050565b82818337600083830152505050565b60006112a76112a284611254565b611239565b9050828152602081018484840111156112c3576112c26111c3565b5b6112ce848285611285565b509392505050565b600082601f8301126112eb576112ea6111be565b5b81356112fb848260208601611294565b91505092915050565b6000819050919050565b61131781611304565b811461132257600080fd5b50565b6000813590506113348161130e565b92915050565b60008060008060008060c08789031215611357576113566111b4565b5b600087013567ffffffffffffffff811115611375576113746111b9565b5b61138189828a016112d6565b965050602087013567ffffffffffffffff8111156113a2576113a16111b9565b5b6113ae89828a016112d6565b955050604087013567ffffffffffffffff8111156113cf576113ce6111b9565b5b6113db89828a016112d6565b945050606087013567ffffffffffffffff8111156113fc576113fb6111b9565b5b61140889828a016112d6565b935050608061141989828a01611325565b92505060a087013567ffffffffffffffff81111561143a576114396111b9565b5b61144689828a016112d6565b9150509295509295509295565b600073ffffffffffffffffffffffffffffffffffffffff82169050919050565b600061147e82611453565b9050919050565b61148e81611473565b811461149957600080fd5b50565b6000813590506114ab81611485565b92915050565b6000602082840312156114c7576114c66111b4565b5b60006114d58482850161149c565b91505092915050565b60008115159050919050565b6114f3816114de565b82525050565b600060208201905061150e60008301846114ea565b92915050565b600081519050919050565b600082825260208201905092915050565b6000819050602082019050919050565b61154981611473565b82525050565b600081519050919050565b600082825260208201905092915050565b60005b8381101561158957808201518184015260208101905061156e565b60008484015250505050565b60006115a08261154f565b6115aa818561155a565b93506115ba81856020860161156b565b6115c3816111c8565b840191505092915050565b6115d781611304565b82525050565b6115e6816114de565b82525050565b6000610120830160008301516116056000860182611540565b506020830151848203602086015261161d8282611595565b915050604083015184820360408601526116378282611595565b915050606083015184820360608601526116518282611595565b9150506080830151848203608086015261166b8282611595565b91505060a083015161168060a08601826115ce565b5060c083015161169360c08601826115ce565b5060e08301516116a660e08601826115dd565b506101008301518482036101008601526116c08282611595565b9150508091505092915050565b60006116d983836115ec565b905092915050565b6000602082019050919050565b60006116f982611514565b611703818561151f565b93508360208202850161171585611530565b8060005b85811015611751578484038952815161173285826116cd565b945061173d836116e1565b925060208a01995050600181019050611719565b50829750879550505050505092915050565b6000602082019050818103600083015261177d81846116ee565b905092915050565b60006020828403121561179b5761179a6111b4565b5b60006117a984828501611325565b91505092915050565b6117bb81611473565b82525050565b600082825260208201905092915050565b60006117dd8261154f565b6117e781856117c1565b93506117f781856020860161156b565b611800816111c8565b840191505092915050565b61181481611304565b82525050565b600061012082019050611830600083018c6117b2565b8181036020830152611842818b6117d2565b90508181036040830152611856818a6117d2565b9050818103606083015261186a81896117d2565b9050818103608083015261187e81886117d2565b905061188d60a083018761180b565b61189a60c083018661180b565b6118a760e08301856114ea565b8181036101008301526118ba81846117d2565b90509a9950505050505050505050565b600081519050919050565b600082825260208201905092915050565b6000819050602082019050919050565b60006119028383611595565b905092915050565b6000602082019050919050565b6000611922826118ca565b61192c81856118d5565b93508360208202850161193e856118e6565b8060005b8581101561197a578484038952815161195b85826118f6565b94506119668361190a565b925060208a01995050600181019050611942565b50829750879550505050505092915050565b600081519050919050565b600082825260208201905092915050565b6000819050602082019050919050565b60006119c483836115ce565b60208301905092915050565b6000602082019050919050565b60006119e88261198c565b6119f28185611997565b93506119fd836119a8565b8060005b83811015611a2e578151611a1588826119b8565b9750611a20836119d0565b925050600181019050611a01565b5085935050505092915050565b60006080820190508181036000830152611a558187611917565b90508181036020830152611a6981866119dd565b90508181036040830152611a7d81856119dd565b90508181036060830152611a918184611917565b905095945050505050565b600060208284031215611ab257611ab16111b4565b5b600082013567ffffffffffffffff811115611ad057611acf6111b9565b5b611adc848285016112d6565b91505092915050565b7f54756e6767752062756c616e20626572696b75746e7961000000000000000000600082015250565b6000611b1b6017836117c1565b9150611b2682611ae5565b602082019050919050565b60006020820190508181036000830152611b4a81611b0e565b9050919050565b7f4e487b7100000000000000000000000000000000000000000000000000000000600052602260045260246000fd5b60006002820490506001821680611b9857607f821691505b602082108103611bab57611baa611b51565b5b50919050565b60008190508160005260206000209050919050565b60006020601f8301049050919050565b600082821b905092915050565b600060088302611c137fffffffffffffffffffffffffffffffffffffffffffffffffffffffffffffffff82611bd6565b611c1d8683611bd6565b95508019841693508086168417925050509392505050565b6000819050919050565b6000611c5a611c55611c5084611304565b611c35565b611304565b9050919050565b6000819050919050565b611c7483611c3f565b611c88611c8082611c61565b848454611be3565b825550505050565b600090565b611c9d611c90565b611ca8818484611c6b565b505050565b5b81811015611ccc57611cc1600082611c95565b600181019050611cae565b5050565b601f821115611d1157611ce281611bb1565b611ceb84611bc6565b81016020851015611cfa578190505b611d0e611d0685611bc6565b830182611cad565b50505b505050565b600082821c905092915050565b6000611d3460001984600802611d16565b1980831691505092915050565b6000611d4d8383611d23565b9150826002028217905092915050565b611d668261154f565b67ffffffffffffffff811115611d7f57611d7e6111d9565b5b611d898254611b80565b611d94828285611cd0565b600060209050601f831160018114611dc75760008415611db5578287015190505b611dbf8582611d41565b865550611e27565b601f198416611dd586611bb1565b60005b82811015611dfd57848901518255600182019150602085019450602081019050611dd8565b86831015611e1a5784890151611e16601f891682611d23565b8355505b6001600288020188555050505b505050505050565b7f4e487b7100000000000000000000000000000000000000000000000000000000600052603260045260246000fd5b7f4e487b7100000000000000000000000000000000000000000000000000000000600052601160045260246000fd5b6000611e9882611304565b91507fffffffffffffffffffffffffffffffffffffffffffffffffffffffffffffffff8203611eca57611ec9611e5e565b5b600182019050919050565b6000611ee082611304565b9150611eeb83611304565b9250828203905081811115611f0357611f02611e5e565b5b92915050565b600081905092915050565b6000611f1f8261154f565b611f298185611f09565b9350611f3981856020860161156b565b80840191505092915050565b6000611f518284611f14565b915081905092915050565b60008154611f6981611b80565b611f738186611f09565b94506001821660008114611f8e5760018114611fa357611fd6565b60ff1983168652811515820286019350611fd6565b611fac85611bb1565b60005b83811015611fce57815481890152600182019150602081019050611faf565b838801955050505b50505092915050565b6000611feb8284611f5c565b91508190509291505056fea26469706673582212205ba7a74318cdb25a8e8eefce92c4263d814ffc8e7dd958e9264fed284433028264736f6c63430008110033",
  "immutableReferences": {},
  "source": "// SPDX-License-Identifier: Unlicensed\n\npragma solidity ^0.8.7;\n\ncontract Zakat {\n    uint256 currentTime;\n    address owner;\n\n    constructor() {\n        owner = msg.sender;\n    }\n\n    struct ZakatIVC {\n        address walletAddress;\n        string zakatID;\n        string name;\n        string email;\n        string phoneNum;\n        uint amount;\n        uint256 date;\n        bool statusPayment;\n        string ipfsHash;\n    }\n\n    ZakatIVC[] public zvoice;\n\n    function store(string memory _zakatID, string memory _name, string memory _email, string memory _phoneNum, uint _amount, string memory _ipfsHash) public {\n        bool status = checkPayment(msg.sender);\n        require(status == true, \"Tunggu bulan berikutnya\");\n        zvoice.push(ZakatIVC(msg.sender, _zakatID, _name, _email, _phoneNum, _amount, block.timestamp, true, _ipfsHash));\n\n    }\n\n    function checkPayment(address _walletAddress) public view returns(bool){\n        uint lastPayment=0;\n        uint oneMonthInSeconds = 2592000; // 30 d x 24 h x 60 m x 60 s\n        for (uint i=0; i<zvoice.length; i++){\n            if(zvoice[i].walletAddress == _walletAddress){\n                if(zvoice[i].date > lastPayment){\n                    lastPayment = zvoice[i].date;\n                }\n            }\n        }\n        return (block.timestamp - lastPayment >= oneMonthInSeconds);\n    } \n\n    function verifyFile(string memory _ipfsHash) public view returns (bool){\n        bool valid = false;\n        for (uint i = 0; i < zvoice.length; i++) {\n            if (keccak256(abi.encodePacked(zvoice[i].ipfsHash)) == keccak256(abi.encodePacked(_ipfsHash))) {\n                valid = true;\n                break;\n            }\n        }\n        return valid;\n    }\n\n    function getAll() public view returns(ZakatIVC[] memory){\n        ZakatIVC[] memory result = new ZakatIVC[](zvoice.length);\n        for(uint i=0;i<zvoice.length;i++){\n            result[i] = zvoice[i];\n        }\n        return result;\n    }\n\n    function getHistory(address _walletAddress) public view returns (string[] memory, uint256[] memory, uint[] memory, string[] memory) {\n        // require(msg.sender == _walletAddress, \"Address yang dimasukkan tidak sesuai dengan address anda\");\n        uint count = 0;\n        for (uint j=0; j < zvoice.length; j++){\n            if(zvoice[j].walletAddress == _walletAddress){\n                count++;\n            }\n        }\n        string[] memory _zakatID = new string[](count);\n        string[] memory _ipfsHash = new string[](count);\n        uint256[] memory _date = new uint256[](count);\n        uint[] memory _amount = new uint[](count);\n        uint i = 0;\n        for (uint j = 0; j < zvoice.length; j++) {\n            if (zvoice[j].walletAddress == _walletAddress) {\n                _zakatID[i] = zvoice[j].zakatID;\n                _date[i] = zvoice[j].date;\n                _amount[i] = zvoice[j].amount;\n                _ipfsHash[i] = zvoice[j].ipfsHash;\n                i++;\n            }\n        }\n        return (_zakatID, _date, _amount, _ipfsHash);\n    }\n}\n\n\n// ZAKAT-5215, JAJANG, jajang@gmail.com, 08123457789, 2500, qjwkdjwqkdjqwkjw\n// ZAKAT-1634, JAJANG, jajang@gmail.com, 08123457789, 2500, qmkdmqkmdkqdasfa\n// ZAKAT-1212, JAJANG, jajang@gmail.com, 08123457789, 2500\n// ZAKAT-4123, MUSANG, musang@gmail.com, 08123457789, 5000, qkwdlwqdlqwmdqlwm\n// ZAKAT-7724, EKOR, ekor@gmail.com, 08123457789, 10000",
  "sourcePath": "/home/ardias/Desktop/Development/Blockchain/TA/zakat/contracts/Zakat.sol",
  "compiler": {
    "name": "solc",
    "version": "0.8.17+commit.8df45f5f.Emscripten.clang"
  },
  "schemaVersion": "3.4.11",
  "updatedAt": "2023-01-19T15:05:09.590Z",
  "networkType": "ethereum",
  "devdoc": {
    "kind": "dev",
    "methods": {},
    "version": 1
  },
  "userdoc": {
    "kind": "user",
    "methods": {},
    "version": 1
  }
}