{
  "contractName": "Zakat",
  "abi": [
    {
      "inputs": [],
      "stateMutability": "nonpayable",
      "type": "constructor"
    },
    {
      "inputs": [
        {
          "internalType": "uint256",
          "name": "",
          "type": "uint256"
        }
      ],
      "name": "zvoice",
      "outputs": [
        {
          "internalType": "address",
          "name": "walletAddress",
          "type": "address"
        },
        {
          "internalType": "string",
          "name": "zakatID",
          "type": "string"
        },
        {
          "internalType": "string",
          "name": "name",
          "type": "string"
        },
        {
          "internalType": "string",
          "name": "email",
          "type": "string"
        },
        {
          "internalType": "string",
          "name": "phoneNum",
          "type": "string"
        },
        {
          "internalType": "uint256",
          "name": "amount",
          "type": "uint256"
        },
        {
          "internalType": "uint256",
          "name": "date",
          "type": "uint256"
        },
        {
          "internalType": "bool",
          "name": "statusPayment",
          "type": "bool"
        }
      ],
      "stateMutability": "view",
      "type": "function",
      "constant": true
    },
    {
      "inputs": [
        {
          "internalType": "string",
          "name": "_zakatID",
          "type": "string"
        },
        {
          "internalType": "string",
          "name": "_name",
          "type": "string"
        },
        {
          "internalType": "string",
          "name": "_email",
          "type": "string"
        },
        {
          "internalType": "string",
          "name": "_phoneNum",
          "type": "string"
        },
        {
          "internalType": "uint256",
          "name": "_amount",
          "type": "uint256"
        }
      ],
      "name": "store",
      "outputs": [],
      "stateMutability": "nonpayable",
      "type": "function"
    },
    {
      "inputs": [],
      "name": "getAll",
      "outputs": [
        {
          "components": [
            {
              "internalType": "address",
              "name": "walletAddress",
              "type": "address"
            },
            {
              "internalType": "string",
              "name": "zakatID",
              "type": "string"
            },
            {
              "internalType": "string",
              "name": "name",
              "type": "string"
            },
            {
              "internalType": "string",
              "name": "email",
              "type": "string"
            },
            {
              "internalType": "string",
              "name": "phoneNum",
              "type": "string"
            },
            {
              "internalType": "uint256",
              "name": "amount",
              "type": "uint256"
            },
            {
              "internalType": "uint256",
              "name": "date",
              "type": "uint256"
            },
            {
              "internalType": "bool",
              "name": "statusPayment",
              "type": "bool"
            }
          ],
          "internalType": "struct Zakat.ZakatIVC[]",
          "name": "",
          "type": "tuple[]"
        }
      ],
      "stateMutability": "view",
      "type": "function",
      "constant": true
    },
    {
      "inputs": [
        {
          "internalType": "address",
          "name": "_walletAddress",
          "type": "address"
        }
      ],
      "name": "getHistory",
      "outputs": [
        {
          "internalType": "string[]",
          "name": "",
          "type": "string[]"
        },
        {
          "internalType": "uint256[]",
          "name": "",
          "type": "uint256[]"
        },
        {
          "internalType": "uint256[]",
          "name": "",
          "type": "uint256[]"
        }
      ],
      "stateMutability": "view",
      "type": "function",
      "constant": true
    }
  ],
  "bytecode": "0x608060405234801561001057600080fd5b5033600160006101000a81548173ffffffffffffffffffffffffffffffffffffffff021916908373ffffffffffffffffffffffffffffffffffffffff160217905550611ad3806100616000396000f3fe608060405234801561001057600080fd5b506004361061004c5760003560e01c806353ed5143146100515780635960b81e1461006f57806380396811146100a6578063c437019e146100d8575b600080fd5b6100596100f4565b60405161006691906110a3565b60405180910390f35b61008960048036038101906100849190611105565b610497565b60405161009d9897969594939291906111a9565b60405180910390f35b6100c060048036038101906100bb919061126f565b61073c565b6040516100cf9392919061140d565b60405180910390f35b6100f260048036038101906100ed919061158e565b610af0565b005b6060600060028054905067ffffffffffffffff81111561011757610116611463565b5b60405190808252806020026020018201604052801561015057816020015b61013d610dba565b8152602001906001900390816101355790505b50905060005b60028054905081101561048f576002818154811061017757610176611679565b5b9060005260206000209060080201604051806101000160405290816000820160009054906101000a900473ffffffffffffffffffffffffffffffffffffffff1673ffffffffffffffffffffffffffffffffffffffff1673ffffffffffffffffffffffffffffffffffffffff1681526020016001820180546101f7906116d7565b80601f0160208091040260200160405190810160405280929190818152602001828054610223906116d7565b80156102705780601f1061024557610100808354040283529160200191610270565b820191906000526020600020905b81548152906001019060200180831161025357829003601f168201915b50505050508152602001600282018054610289906116d7565b80601f01602080910402602001604051908101604052809291908181526020018280546102b5906116d7565b80156103025780601f106102d757610100808354040283529160200191610302565b820191906000526020600020905b8154815290600101906020018083116102e557829003601f168201915b5050505050815260200160038201805461031b906116d7565b80601f0160208091040260200160405190810160405280929190818152602001828054610347906116d7565b80156103945780601f1061036957610100808354040283529160200191610394565b820191906000526020600020905b81548152906001019060200180831161037757829003601f168201915b505050505081526020016004820180546103ad906116d7565b80601f01602080910402602001604051908101604052809291908181526020018280546103d9906116d7565b80156104265780601f106103fb57610100808354040283529160200191610426565b820191906000526020600020905b81548152906001019060200180831161040957829003601f168201915b5050505050815260200160058201548152602001600682015481526020016007820160009054906101000a900460ff16151515158152505082828151811061047157610470611679565b5b6020026020010181905250808061048790611737565b915050610156565b508091505090565b600281815481106104a757600080fd5b90600052602060002090600802016000915090508060000160009054906101000a900473ffffffffffffffffffffffffffffffffffffffff16908060010180546104f0906116d7565b80601f016020809104026020016040519081016040528092919081815260200182805461051c906116d7565b80156105695780601f1061053e57610100808354040283529160200191610569565b820191906000526020600020905b81548152906001019060200180831161054c57829003601f168201915b50505050509080600201805461057e906116d7565b80601f01602080910402602001604051908101604052809291908181526020018280546105aa906116d7565b80156105f75780601f106105cc576101008083540402835291602001916105f7565b820191906000526020600020905b8154815290600101906020018083116105da57829003601f168201915b50505050509080600301805461060c906116d7565b80601f0160208091040260200160405190810160405280929190818152602001828054610638906116d7565b80156106855780601f1061065a57610100808354040283529160200191610685565b820191906000526020600020905b81548152906001019060200180831161066857829003601f168201915b50505050509080600401805461069a906116d7565b80601f01602080910402602001604051908101604052809291908181526020018280546106c6906116d7565b80156107135780601f106106e857610100808354040283529160200191610713565b820191906000526020600020905b8154815290600101906020018083116106f657829003601f168201915b5050505050908060050154908060060154908060070160009054906101000a900460ff16905088565b60608060606000805b6002805490508110156107ec578573ffffffffffffffffffffffffffffffffffffffff166002828154811061077d5761077c611679565b5b906000526020600020906008020160000160009054906101000a900473ffffffffffffffffffffffffffffffffffffffff1673ffffffffffffffffffffffffffffffffffffffff16036107d95781806107d590611737565b9250505b80806107e490611737565b915050610745565b5060008167ffffffffffffffff81111561080957610808611463565b5b60405190808252806020026020018201604052801561083c57816020015b60608152602001906001900390816108275790505b50905060008267ffffffffffffffff81111561085b5761085a611463565b5b6040519080825280602002602001820160405280156108895781602001602082028036833780820191505090505b50905060008367ffffffffffffffff8111156108a8576108a7611463565b5b6040519080825280602002602001820160405280156108d65781602001602082028036833780820191505090505b5090506000805b600280549050811015610ada578973ffffffffffffffffffffffffffffffffffffffff166002828154811061091557610914611679565b5b906000526020600020906008020160000160009054906101000a900473ffffffffffffffffffffffffffffffffffffffff1673ffffffffffffffffffffffffffffffffffffffff1603610ac7576002818154811061097657610975611679565b5b90600052602060002090600802016001018054610992906116d7565b80601f01602080910402602001604051908101604052809291908181526020018280546109be906116d7565b8015610a0b5780601f106109e057610100808354040283529160200191610a0b565b820191906000526020600020905b8154815290600101906020018083116109ee57829003601f168201915b5050505050858381518110610a2357610a22611679565b5b602002602001018190525060028181548110610a4257610a41611679565b5b906000526020600020906008020160060154848381518110610a6757610a66611679565b5b60200260200101818152505060028181548110610a8757610a86611679565b5b906000526020600020906008020160050154838381518110610aac57610aab611679565b5b6020026020010181815250508180610ac390611737565b9250505b8080610ad290611737565b9150506108dd565b5083838397509750975050505050509193909250565b6000610afa610cb9565b9050600062278d009050426000819055508082600054610b1a919061177f565b1015610b5b576040517f08c379a0000000000000000000000000000000000000000000000000000000008152600401610b52906117ff565b60405180910390fd5b60026040518061010001604052803373ffffffffffffffffffffffffffffffffffffffff168152602001898152602001888152602001878152602001868152602001858152602001600054815260200160011515815250908060018154018082558091505060019003906000526020600020906008020160009091909190915060008201518160000160006101000a81548173ffffffffffffffffffffffffffffffffffffffff021916908373ffffffffffffffffffffffffffffffffffffffff1602179055506020820151816001019081610c3791906119cb565b506040820151816002019081610c4d91906119cb565b506060820151816003019081610c6391906119cb565b506080820151816004019081610c7991906119cb565b5060a0820151816005015560c0820151816006015560e08201518160070160006101000a81548160ff021916908315150217905550505050505050505050565b6000806000905060005b600280549050811015610db2573373ffffffffffffffffffffffffffffffffffffffff1660028281548110610cfb57610cfa611679565b5b906000526020600020906008020160000160009054906101000a900473ffffffffffffffffffffffffffffffffffffffff1673ffffffffffffffffffffffffffffffffffffffff1603610d9f578160028281548110610d5d57610d5c611679565b5b9060005260206000209060080201600601541115610d9e5760028181548110610d8957610d88611679565b5b90600052602060002090600802016006015491505b5b8080610daa90611737565b915050610cc3565b508091505090565b604051806101000160405280600073ffffffffffffffffffffffffffffffffffffffff1681526020016060815260200160608152602001606081526020016060815260200160008152602001600081526020016000151581525090565b600081519050919050565b600082825260208201905092915050565b6000819050602082019050919050565b600073ffffffffffffffffffffffffffffffffffffffff82169050919050565b6000610e6e82610e43565b9050919050565b610e7e81610e63565b82525050565b600081519050919050565b600082825260208201905092915050565b60005b83811015610ebe578082015181840152602081019050610ea3565b60008484015250505050565b6000601f19601f8301169050919050565b6000610ee682610e84565b610ef08185610e8f565b9350610f00818560208601610ea0565b610f0981610eca565b840191505092915050565b6000819050919050565b610f2781610f14565b82525050565b60008115159050919050565b610f4281610f2d565b82525050565b600061010083016000830151610f616000860182610e75565b5060208301518482036020860152610f798282610edb565b91505060408301518482036040860152610f938282610edb565b91505060608301518482036060860152610fad8282610edb565b91505060808301518482036080860152610fc78282610edb565b91505060a0830151610fdc60a0860182610f1e565b5060c0830151610fef60c0860182610f1e565b5060e083015161100260e0860182610f39565b508091505092915050565b60006110198383610f48565b905092915050565b6000602082019050919050565b600061103982610e17565b6110438185610e22565b93508360208202850161105585610e33565b8060005b858110156110915784840389528151611072858261100d565b945061107d83611021565b925060208a01995050600181019050611059565b50829750879550505050505092915050565b600060208201905081810360008301526110bd818461102e565b905092915050565b6000604051905090565b600080fd5b600080fd5b6110e281610f14565b81146110ed57600080fd5b50565b6000813590506110ff816110d9565b92915050565b60006020828403121561111b5761111a6110cf565b5b6000611129848285016110f0565b91505092915050565b61113b81610e63565b82525050565b600082825260208201905092915050565b600061115d82610e84565b6111678185611141565b9350611177818560208601610ea0565b61118081610eca565b840191505092915050565b61119481610f14565b82525050565b6111a381610f2d565b82525050565b6000610100820190506111bf600083018b611132565b81810360208301526111d1818a611152565b905081810360408301526111e58189611152565b905081810360608301526111f98188611152565b9050818103608083015261120d8187611152565b905061121c60a083018661118b565b61122960c083018561118b565b61123660e083018461119a565b9998505050505050505050565b61124c81610e63565b811461125757600080fd5b50565b60008135905061126981611243565b92915050565b600060208284031215611285576112846110cf565b5b60006112938482850161125a565b91505092915050565b600081519050919050565b600082825260208201905092915050565b6000819050602082019050919050565b60006112d48383610edb565b905092915050565b6000602082019050919050565b60006112f48261129c565b6112fe81856112a7565b935083602082028501611310856112b8565b8060005b8581101561134c578484038952815161132d85826112c8565b9450611338836112dc565b925060208a01995050600181019050611314565b50829750879550505050505092915050565b600081519050919050565b600082825260208201905092915050565b6000819050602082019050919050565b60006113968383610f1e565b60208301905092915050565b6000602082019050919050565b60006113ba8261135e565b6113c48185611369565b93506113cf8361137a565b8060005b838110156114005781516113e7888261138a565b97506113f2836113a2565b9250506001810190506113d3565b5085935050505092915050565b6000606082019050818103600083015261142781866112e9565b9050818103602083015261143b81856113af565b9050818103604083015261144f81846113af565b9050949350505050565b600080fd5b600080fd5b7f4e487b7100000000000000000000000000000000000000000000000000000000600052604160045260246000fd5b61149b82610eca565b810181811067ffffffffffffffff821117156114ba576114b9611463565b5b80604052505050565b60006114cd6110c5565b90506114d98282611492565b919050565b600067ffffffffffffffff8211156114f9576114f8611463565b5b61150282610eca565b9050602081019050919050565b82818337600083830152505050565b600061153161152c846114de565b6114c3565b90508281526020810184848401111561154d5761154c61145e565b5b61155884828561150f565b509392505050565b600082601f83011261157557611574611459565b5b813561158584826020860161151e565b91505092915050565b600080600080600060a086880312156115aa576115a96110cf565b5b600086013567ffffffffffffffff8111156115c8576115c76110d4565b5b6115d488828901611560565b955050602086013567ffffffffffffffff8111156115f5576115f46110d4565b5b61160188828901611560565b945050604086013567ffffffffffffffff811115611622576116216110d4565b5b61162e88828901611560565b935050606086013567ffffffffffffffff81111561164f5761164e6110d4565b5b61165b88828901611560565b925050608061166c888289016110f0565b9150509295509295909350565b7f4e487b7100000000000000000000000000000000000000000000000000000000600052603260045260246000fd5b7f4e487b7100000000000000000000000000000000000000000000000000000000600052602260045260246000fd5b600060028204905060018216806116ef57607f821691505b602082108103611702576117016116a8565b5b50919050565b7f4e487b7100000000000000000000000000000000000000000000000000000000600052601160045260246000fd5b600061174282610f14565b91507fffffffffffffffffffffffffffffffffffffffffffffffffffffffffffffffff820361177457611773611708565b5b600182019050919050565b600061178a82610f14565b915061179583610f14565b92508282039050818111156117ad576117ac611708565b5b92915050565b7f54756e6767752062756c616e20626572696b75746e7961000000000000000000600082015250565b60006117e9601783611141565b91506117f4826117b3565b602082019050919050565b60006020820190508181036000830152611818816117dc565b9050919050565b60008190508160005260206000209050919050565b60006020601f8301049050919050565b600082821b905092915050565b6000600883026118817fffffffffffffffffffffffffffffffffffffffffffffffffffffffffffffffff82611844565b61188b8683611844565b95508019841693508086168417925050509392505050565b6000819050919050565b60006118c86118c36118be84610f14565b6118a3565b610f14565b9050919050565b6000819050919050565b6118e2836118ad565b6118f66118ee826118cf565b848454611851565b825550505050565b600090565b61190b6118fe565b6119168184846118d9565b505050565b5b8181101561193a5761192f600082611903565b60018101905061191c565b5050565b601f82111561197f576119508161181f565b61195984611834565b81016020851015611968578190505b61197c61197485611834565b83018261191b565b50505b505050565b600082821c905092915050565b60006119a260001984600802611984565b1980831691505092915050565b60006119bb8383611991565b9150826002028217905092915050565b6119d482610e84565b67ffffffffffffffff8111156119ed576119ec611463565b5b6119f782546116d7565b611a0282828561193e565b600060209050601f831160018114611a355760008415611a23578287015190505b611a2d85826119af565b865550611a95565b601f198416611a438661181f565b60005b82811015611a6b57848901518255600182019150602085019450602081019050611a46565b86831015611a885784890151611a84601f891682611991565b8355505b6001600288020188555050505b50505050505056fea2646970667358221220b881815a29c174885cb9efaf7e76eecd0547af67a9bbfac91560927a9532a77164736f6c63430008110033",
  "immutableReferences": {},
  "source": "// SPDX-License-Identifier: Unlicensed\n\npragma solidity ^0.8.7;\n\ncontract Zakat {\n    uint256 currentTime;\n    address owner;\n\n    constructor() {\n        owner = msg.sender;\n    }\n\n    struct ZakatIVC {\n        address walletAddress;\n        string zakatID;\n        string name;\n        string email;\n        string phoneNum;\n        uint amount;\n        uint256 date;\n        bool statusPayment;\n    }\n\n    ZakatIVC[] public zvoice;\n\n    function store(string memory _zakatID, string memory _name, string memory _email, string memory _phoneNum, uint _amount) public {\n        uint lastPayment = checkLastPaymentDate();\n        uint oneMonthInSeconds = 2592000; // 30 d x 24 h x 60 m x 60 s\n        currentTime = block.timestamp;\n        require(currentTime - lastPayment >= oneMonthInSeconds, \"Tunggu bulan berikutnya\");\n        zvoice.push(ZakatIVC(msg.sender, _zakatID, _name, _email, _phoneNum, _amount, currentTime, true));\n\n    }\n\n    function checkLastPaymentDate() private view returns (uint){\n        uint lastPayment=0;\n        for (uint i=0; i<zvoice.length; i++){\n            if(zvoice[i].walletAddress == msg.sender){\n                if(zvoice[i].date > lastPayment){\n                    lastPayment = zvoice[i].date;\n                }\n            }\n        }\n        return lastPayment;\n    }\n\n    function getAll() public view returns(ZakatIVC[] memory){\n        ZakatIVC[] memory result = new ZakatIVC[](zvoice.length);\n        for(uint i=0;i<zvoice.length;i++){\n            result[i] = zvoice[i];\n        }\n        return result;\n    }\n\n    function getHistory(address _walletAddress) public view returns (string[] memory, uint256[] memory, uint[] memory) {\n        // require(msg.sender == _walletAddress, \"Address yang dimasukkan tidak sesuai dengan address anda\");\n        uint count = 0;\n        for (uint j=0; j < zvoice.length; j++){\n            if(zvoice[j].walletAddress == _walletAddress){\n                count++;\n            }\n        }\n        string[] memory _zakatID = new string[](count);\n        uint256[] memory _date = new uint256[](count);\n        uint[] memory _amount = new uint[](count);\n        uint i = 0;\n        for (uint j = 0; j < zvoice.length; j++) {\n            if (zvoice[j].walletAddress == _walletAddress) {\n                _zakatID[i] = zvoice[j].zakatID;\n                _date[i] = zvoice[j].date;\n                _amount[i] = zvoice[j].amount;\n                i++;\n            }\n        }\n        return (_zakatID, _date, _amount);\n    }\n\n\n    function getIdx(string memory _zakatID) view private returns(uint){\n        for(uint i=0; i<zvoice.length; i++){\n            if(keccak256(abi.encodePacked(zvoice[i].zakatID)) == keccak256(abi.encodePacked(_zakatID))){\n                return i;\n            }\n        }\n        return zvoice.length;\n    }\n}\n\n// ZAKAT-5215, JAJANG, jajang@gmail.com, 08123457789, 2500\n// ZAKAT-1634, JAJANG, jajang@gmail.com, 08123457789, 2500\n// ZAKAT-1212, JAJANG, jajang@gmail.com, 08123457789, 2500\n// ZAKAT-4123, MUSANG, musang@gmail.com, 08123457789, 5000\n// ZAKAT-7724, EKOR, ekor@gmail.com, 08123457789, 10000",
  "sourcePath": "/home/ardias/Desktop/Development/Blockchain/TA/zakat/contracts/Zakat.sol",
  "compiler": {
    "name": "solc",
    "version": "0.8.17+commit.8df45f5f.Emscripten.clang"
  },
  "schemaVersion": "3.4.10",
  "updatedAt": "2023-01-07T09:18:23.669Z",
  "networkType": "ethereum",
  "devdoc": {
    "kind": "dev",
    "methods": {},
    "version": 1
  },
  "userdoc": {
    "kind": "user",
    "methods": {},
    "version": 1
  }
}