{
  "contractName": "Zakat",
  "abi": [
    {
      "inputs": [],
      "stateMutability": "nonpayable",
      "type": "constructor"
    },
    {
      "inputs": [
        {
          "internalType": "uint256",
          "name": "",
          "type": "uint256"
        }
      ],
      "name": "zvoice",
      "outputs": [
        {
          "internalType": "address",
          "name": "walletAddress",
          "type": "address"
        },
        {
          "internalType": "string",
          "name": "zakatID",
          "type": "string"
        },
        {
          "internalType": "string",
          "name": "name",
          "type": "string"
        },
        {
          "internalType": "string",
          "name": "email",
          "type": "string"
        },
        {
          "internalType": "string",
          "name": "phoneNum",
          "type": "string"
        },
        {
          "internalType": "uint256",
          "name": "amount",
          "type": "uint256"
        },
        {
          "internalType": "uint256",
          "name": "date",
          "type": "uint256"
        },
        {
          "internalType": "bool",
          "name": "statusPayment",
          "type": "bool"
        },
        {
          "internalType": "string",
          "name": "ipfsHash",
          "type": "string"
        }
      ],
      "stateMutability": "view",
      "type": "function",
      "constant": true
    },
    {
      "inputs": [
        {
          "internalType": "string",
          "name": "_zakatID",
          "type": "string"
        },
        {
          "internalType": "string",
          "name": "_name",
          "type": "string"
        },
        {
          "internalType": "string",
          "name": "_email",
          "type": "string"
        },
        {
          "internalType": "string",
          "name": "_phoneNum",
          "type": "string"
        },
        {
          "internalType": "uint256",
          "name": "_amount",
          "type": "uint256"
        },
        {
          "internalType": "string",
          "name": "_ipfsHash",
          "type": "string"
        }
      ],
      "name": "store",
      "outputs": [],
      "stateMutability": "nonpayable",
      "type": "function"
    },
    {
      "inputs": [
        {
          "internalType": "string",
          "name": "_ipfsHash",
          "type": "string"
        }
      ],
      "name": "verifyFile",
      "outputs": [
        {
          "internalType": "bool",
          "name": "",
          "type": "bool"
        }
      ],
      "stateMutability": "view",
      "type": "function",
      "constant": true
    },
    {
      "inputs": [],
      "name": "getAll",
      "outputs": [
        {
          "components": [
            {
              "internalType": "address",
              "name": "walletAddress",
              "type": "address"
            },
            {
              "internalType": "string",
              "name": "zakatID",
              "type": "string"
            },
            {
              "internalType": "string",
              "name": "name",
              "type": "string"
            },
            {
              "internalType": "string",
              "name": "email",
              "type": "string"
            },
            {
              "internalType": "string",
              "name": "phoneNum",
              "type": "string"
            },
            {
              "internalType": "uint256",
              "name": "amount",
              "type": "uint256"
            },
            {
              "internalType": "uint256",
              "name": "date",
              "type": "uint256"
            },
            {
              "internalType": "bool",
              "name": "statusPayment",
              "type": "bool"
            },
            {
              "internalType": "string",
              "name": "ipfsHash",
              "type": "string"
            }
          ],
          "internalType": "struct Zakat.ZakatIVC[]",
          "name": "",
          "type": "tuple[]"
        }
      ],
      "stateMutability": "view",
      "type": "function",
      "constant": true
    },
    {
      "inputs": [
        {
          "internalType": "address",
          "name": "_walletAddress",
          "type": "address"
        }
      ],
      "name": "getHistory",
      "outputs": [
        {
          "internalType": "string[]",
          "name": "",
          "type": "string[]"
        },
        {
          "internalType": "uint256[]",
          "name": "",
          "type": "uint256[]"
        },
        {
          "internalType": "uint256[]",
          "name": "",
          "type": "uint256[]"
        },
        {
          "internalType": "string[]",
          "name": "",
          "type": "string[]"
        }
      ],
      "stateMutability": "view",
      "type": "function",
      "constant": true
    }
  ],
  "bytecode": "0x608060405234801561001057600080fd5b5033600160006101000a81548173ffffffffffffffffffffffffffffffffffffffff021916908373ffffffffffffffffffffffffffffffffffffffff160217905550611ff2806100616000396000f3fe608060405234801561001057600080fd5b50600436106100575760003560e01c80631c1b26621461005c57806353ed5143146100785780635960b81e1461009657806380396811146100ce578063b027102314610101575b600080fd5b61007660048036038101906100719190611300565b610131565b005b610080610318565b60405161008d91906116a6565b60405180910390f35b6100b060048036038101906100ab91906116c8565b61074d565b6040516100c59998979695949392919061176c565b60405180910390f35b6100e860048036038101906100e39190611848565b610a80565b6040516100f894939291906119e6565b60405180910390f35b61011b60048036038101906101169190611a47565b610f57565b6040516101289190611a90565b60405180910390f35b600061013b61100b565b9050600062278d00905042600081905550808260005461015b9190611ada565b101561019c576040517f08c379a000000000000000000000000000000000000000000000000000000000815260040161019390611b5a565b60405180910390fd5b60026040518061012001604052803373ffffffffffffffffffffffffffffffffffffffff1681526020018a8152602001898152602001888152602001878152602001868152602001600054815260200160011515815260200185815250908060018154018082558091505060019003906000526020600020906009020160009091909190915060008201518160000160006101000a81548173ffffffffffffffffffffffffffffffffffffffff021916908373ffffffffffffffffffffffffffffffffffffffff160217905550602082015181600101908161027e9190611d86565b5060408201518160020190816102949190611d86565b5060608201518160030190816102aa9190611d86565b5060808201518160040190816102c09190611d86565b5060a0820151816005015560c0820151816006015560e08201518160070160006101000a81548160ff02191690831515021790555061010082015181600801908161030b9190611d86565b5050505050505050505050565b6060600060028054905067ffffffffffffffff81111561033b5761033a61119f565b5b60405190808252806020026020018201604052801561037457816020015b61036161110c565b8152602001906001900390816103595790505b50905060005b600280549050811015610745576002818154811061039b5761039a611e58565b5b9060005260206000209060090201604051806101200160405290816000820160009054906101000a900473ffffffffffffffffffffffffffffffffffffffff1673ffffffffffffffffffffffffffffffffffffffff1673ffffffffffffffffffffffffffffffffffffffff16815260200160018201805461041b90611ba9565b80601f016020809104026020016040519081016040528092919081815260200182805461044790611ba9565b80156104945780601f1061046957610100808354040283529160200191610494565b820191906000526020600020905b81548152906001019060200180831161047757829003601f168201915b505050505081526020016002820180546104ad90611ba9565b80601f01602080910402602001604051908101604052809291908181526020018280546104d990611ba9565b80156105265780601f106104fb57610100808354040283529160200191610526565b820191906000526020600020905b81548152906001019060200180831161050957829003601f168201915b5050505050815260200160038201805461053f90611ba9565b80601f016020809104026020016040519081016040528092919081815260200182805461056b90611ba9565b80156105b85780601f1061058d576101008083540402835291602001916105b8565b820191906000526020600020905b81548152906001019060200180831161059b57829003601f168201915b505050505081526020016004820180546105d190611ba9565b80601f01602080910402602001604051908101604052809291908181526020018280546105fd90611ba9565b801561064a5780601f1061061f5761010080835404028352916020019161064a565b820191906000526020600020905b81548152906001019060200180831161062d57829003601f168201915b5050505050815260200160058201548152602001600682015481526020016007820160009054906101000a900460ff1615151515815260200160088201805461069290611ba9565b80601f01602080910402602001604051908101604052809291908181526020018280546106be90611ba9565b801561070b5780601f106106e05761010080835404028352916020019161070b565b820191906000526020600020905b8154815290600101906020018083116106ee57829003601f168201915b50505050508152505082828151811061072757610726611e58565b5b6020026020010181905250808061073d90611e87565b91505061037a565b508091505090565b6002818154811061075d57600080fd5b90600052602060002090600902016000915090508060000160009054906101000a900473ffffffffffffffffffffffffffffffffffffffff16908060010180546107a690611ba9565b80601f01602080910402602001604051908101604052809291908181526020018280546107d290611ba9565b801561081f5780601f106107f45761010080835404028352916020019161081f565b820191906000526020600020905b81548152906001019060200180831161080257829003601f168201915b50505050509080600201805461083490611ba9565b80601f016020809104026020016040519081016040528092919081815260200182805461086090611ba9565b80156108ad5780601f10610882576101008083540402835291602001916108ad565b820191906000526020600020905b81548152906001019060200180831161089057829003601f168201915b5050505050908060030180546108c290611ba9565b80601f01602080910402602001604051908101604052809291908181526020018280546108ee90611ba9565b801561093b5780601f106109105761010080835404028352916020019161093b565b820191906000526020600020905b81548152906001019060200180831161091e57829003601f168201915b50505050509080600401805461095090611ba9565b80601f016020809104026020016040519081016040528092919081815260200182805461097c90611ba9565b80156109c95780601f1061099e576101008083540402835291602001916109c9565b820191906000526020600020905b8154815290600101906020018083116109ac57829003601f168201915b5050505050908060050154908060060154908060070160009054906101000a900460ff16908060080180546109fd90611ba9565b80601f0160208091040260200160405190810160405280929190818152602001828054610a2990611ba9565b8015610a765780601f10610a4b57610100808354040283529160200191610a76565b820191906000526020600020905b815481529060010190602001808311610a5957829003601f168201915b5050505050905089565b6060806060806000805b600280549050811015610b31578673ffffffffffffffffffffffffffffffffffffffff1660028281548110610ac257610ac1611e58565b5b906000526020600020906009020160000160009054906101000a900473ffffffffffffffffffffffffffffffffffffffff1673ffffffffffffffffffffffffffffffffffffffff1603610b1e578180610b1a90611e87565b9250505b8080610b2990611e87565b915050610a8a565b5060008167ffffffffffffffff811115610b4e57610b4d61119f565b5b604051908082528060200260200182016040528015610b8157816020015b6060815260200190600190039081610b6c5790505b50905060008267ffffffffffffffff811115610ba057610b9f61119f565b5b604051908082528060200260200182016040528015610bd357816020015b6060815260200190600190039081610bbe5790505b50905060008367ffffffffffffffff811115610bf257610bf161119f565b5b604051908082528060200260200182016040528015610c205781602001602082028036833780820191505090505b50905060008467ffffffffffffffff811115610c3f57610c3e61119f565b5b604051908082528060200260200182016040528015610c6d5781602001602082028036833780820191505090505b5090506000805b600280549050811015610f3d578b73ffffffffffffffffffffffffffffffffffffffff1660028281548110610cac57610cab611e58565b5b906000526020600020906009020160000160009054906101000a900473ffffffffffffffffffffffffffffffffffffffff1673ffffffffffffffffffffffffffffffffffffffff1603610f2a5760028181548110610d0d57610d0c611e58565b5b90600052602060002090600902016001018054610d2990611ba9565b80601f0160208091040260200160405190810160405280929190818152602001828054610d5590611ba9565b8015610da25780601f10610d7757610100808354040283529160200191610da2565b820191906000526020600020905b815481529060010190602001808311610d8557829003601f168201915b5050505050868381518110610dba57610db9611e58565b5b602002602001018190525060028181548110610dd957610dd8611e58565b5b906000526020600020906009020160060154848381518110610dfe57610dfd611e58565b5b60200260200101818152505060028181548110610e1e57610e1d611e58565b5b906000526020600020906009020160050154838381518110610e4357610e42611e58565b5b60200260200101818152505060028181548110610e6357610e62611e58565b5b90600052602060002090600902016008018054610e7f90611ba9565b80601f0160208091040260200160405190810160405280929190818152602001828054610eab90611ba9565b8015610ef85780601f10610ecd57610100808354040283529160200191610ef8565b820191906000526020600020905b815481529060010190602001808311610edb57829003601f168201915b5050505050858381518110610f1057610f0f611e58565b5b60200260200101819052508180610f2690611e87565b9250505b8080610f3590611e87565b915050610c74565b508483838699509950995099505050505050509193509193565b6000806000905060005b6002805490508110156110015783604051602001610f7f9190611f0b565b6040516020818303038152906040528051906020012060028281548110610fa957610fa8611e58565b5b9060005260206000209060090201600801604051602001610fca9190611fa5565b6040516020818303038152906040528051906020012003610fee5760019150611001565b8080610ff990611e87565b915050610f61565b5080915050919050565b6000806000905060005b600280549050811015611104573373ffffffffffffffffffffffffffffffffffffffff166002828154811061104d5761104c611e58565b5b906000526020600020906009020160000160009054906101000a900473ffffffffffffffffffffffffffffffffffffffff1673ffffffffffffffffffffffffffffffffffffffff16036110f15781600282815481106110af576110ae611e58565b5b90600052602060002090600902016006015411156110f057600281815481106110db576110da611e58565b5b90600052602060002090600902016006015491505b5b80806110fc90611e87565b915050611015565b508091505090565b604051806101200160405280600073ffffffffffffffffffffffffffffffffffffffff168152602001606081526020016060815260200160608152602001606081526020016000815260200160008152602001600015158152602001606081525090565b6000604051905090565b600080fd5b600080fd5b600080fd5b600080fd5b6000601f19601f8301169050919050565b7f4e487b7100000000000000000000000000000000000000000000000000000000600052604160045260246000fd5b6111d78261118e565b810181811067ffffffffffffffff821117156111f6576111f561119f565b5b80604052505050565b6000611209611170565b905061121582826111ce565b919050565b600067ffffffffffffffff8211156112355761123461119f565b5b61123e8261118e565b9050602081019050919050565b82818337600083830152505050565b600061126d6112688461121a565b6111ff565b90508281526020810184848401111561128957611288611189565b5b61129484828561124b565b509392505050565b600082601f8301126112b1576112b0611184565b5b81356112c184826020860161125a565b91505092915050565b6000819050919050565b6112dd816112ca565b81146112e857600080fd5b50565b6000813590506112fa816112d4565b92915050565b60008060008060008060c0878903121561131d5761131c61117a565b5b600087013567ffffffffffffffff81111561133b5761133a61117f565b5b61134789828a0161129c565b965050602087013567ffffffffffffffff8111156113685761136761117f565b5b61137489828a0161129c565b955050604087013567ffffffffffffffff8111156113955761139461117f565b5b6113a189828a0161129c565b945050606087013567ffffffffffffffff8111156113c2576113c161117f565b5b6113ce89828a0161129c565b93505060806113df89828a016112eb565b92505060a087013567ffffffffffffffff811115611400576113ff61117f565b5b61140c89828a0161129c565b9150509295509295509295565b600081519050919050565b600082825260208201905092915050565b6000819050602082019050919050565b600073ffffffffffffffffffffffffffffffffffffffff82169050919050565b600061147082611445565b9050919050565b61148081611465565b82525050565b600081519050919050565b600082825260208201905092915050565b60005b838110156114c05780820151818401526020810190506114a5565b60008484015250505050565b60006114d782611486565b6114e18185611491565b93506114f18185602086016114a2565b6114fa8161118e565b840191505092915050565b61150e816112ca565b82525050565b60008115159050919050565b61152981611514565b82525050565b6000610120830160008301516115486000860182611477565b506020830151848203602086015261156082826114cc565b9150506040830151848203604086015261157a82826114cc565b9150506060830151848203606086015261159482826114cc565b915050608083015184820360808601526115ae82826114cc565b91505060a08301516115c360a0860182611505565b5060c08301516115d660c0860182611505565b5060e08301516115e960e0860182611520565b5061010083015184820361010086015261160382826114cc565b9150508091505092915050565b600061161c838361152f565b905092915050565b6000602082019050919050565b600061163c82611419565b6116468185611424565b93508360208202850161165885611435565b8060005b8581101561169457848403895281516116758582611610565b945061168083611624565b925060208a0199505060018101905061165c565b50829750879550505050505092915050565b600060208201905081810360008301526116c08184611631565b905092915050565b6000602082840312156116de576116dd61117a565b5b60006116ec848285016112eb565b91505092915050565b6116fe81611465565b82525050565b600082825260208201905092915050565b600061172082611486565b61172a8185611704565b935061173a8185602086016114a2565b6117438161118e565b840191505092915050565b611757816112ca565b82525050565b61176681611514565b82525050565b600061012082019050611782600083018c6116f5565b8181036020830152611794818b611715565b905081810360408301526117a8818a611715565b905081810360608301526117bc8189611715565b905081810360808301526117d08188611715565b90506117df60a083018761174e565b6117ec60c083018661174e565b6117f960e083018561175d565b81810361010083015261180c8184611715565b90509a9950505050505050505050565b61182581611465565b811461183057600080fd5b50565b6000813590506118428161181c565b92915050565b60006020828403121561185e5761185d61117a565b5b600061186c84828501611833565b91505092915050565b600081519050919050565b600082825260208201905092915050565b6000819050602082019050919050565b60006118ad83836114cc565b905092915050565b6000602082019050919050565b60006118cd82611875565b6118d78185611880565b9350836020820285016118e985611891565b8060005b85811015611925578484038952815161190685826118a1565b9450611911836118b5565b925060208a019950506001810190506118ed565b50829750879550505050505092915050565b600081519050919050565b600082825260208201905092915050565b6000819050602082019050919050565b600061196f8383611505565b60208301905092915050565b6000602082019050919050565b600061199382611937565b61199d8185611942565b93506119a883611953565b8060005b838110156119d95781516119c08882611963565b97506119cb8361197b565b9250506001810190506119ac565b5085935050505092915050565b60006080820190508181036000830152611a0081876118c2565b90508181036020830152611a148186611988565b90508181036040830152611a288185611988565b90508181036060830152611a3c81846118c2565b905095945050505050565b600060208284031215611a5d57611a5c61117a565b5b600082013567ffffffffffffffff811115611a7b57611a7a61117f565b5b611a878482850161129c565b91505092915050565b6000602082019050611aa5600083018461175d565b92915050565b7f4e487b7100000000000000000000000000000000000000000000000000000000600052601160045260246000fd5b6000611ae5826112ca565b9150611af0836112ca565b9250828203905081811115611b0857611b07611aab565b5b92915050565b7f54756e6767752062756c616e20626572696b75746e7961000000000000000000600082015250565b6000611b44601783611704565b9150611b4f82611b0e565b602082019050919050565b60006020820190508181036000830152611b7381611b37565b9050919050565b7f4e487b7100000000000000000000000000000000000000000000000000000000600052602260045260246000fd5b60006002820490506001821680611bc157607f821691505b602082108103611bd457611bd3611b7a565b5b50919050565b60008190508160005260206000209050919050565b60006020601f8301049050919050565b600082821b905092915050565b600060088302611c3c7fffffffffffffffffffffffffffffffffffffffffffffffffffffffffffffffff82611bff565b611c468683611bff565b95508019841693508086168417925050509392505050565b6000819050919050565b6000611c83611c7e611c79846112ca565b611c5e565b6112ca565b9050919050565b6000819050919050565b611c9d83611c68565b611cb1611ca982611c8a565b848454611c0c565b825550505050565b600090565b611cc6611cb9565b611cd1818484611c94565b505050565b5b81811015611cf557611cea600082611cbe565b600181019050611cd7565b5050565b601f821115611d3a57611d0b81611bda565b611d1484611bef565b81016020851015611d23578190505b611d37611d2f85611bef565b830182611cd6565b50505b505050565b600082821c905092915050565b6000611d5d60001984600802611d3f565b1980831691505092915050565b6000611d768383611d4c565b9150826002028217905092915050565b611d8f82611486565b67ffffffffffffffff811115611da857611da761119f565b5b611db28254611ba9565b611dbd828285611cf9565b600060209050601f831160018114611df05760008415611dde578287015190505b611de88582611d6a565b865550611e50565b601f198416611dfe86611bda565b60005b82811015611e2657848901518255600182019150602085019450602081019050611e01565b86831015611e435784890151611e3f601f891682611d4c565b8355505b6001600288020188555050505b505050505050565b7f4e487b7100000000000000000000000000000000000000000000000000000000600052603260045260246000fd5b6000611e92826112ca565b91507fffffffffffffffffffffffffffffffffffffffffffffffffffffffffffffffff8203611ec457611ec3611aab565b5b600182019050919050565b600081905092915050565b6000611ee582611486565b611eef8185611ecf565b9350611eff8185602086016114a2565b80840191505092915050565b6000611f178284611eda565b915081905092915050565b60008154611f2f81611ba9565b611f398186611ecf565b94506001821660008114611f545760018114611f6957611f9c565b60ff1983168652811515820286019350611f9c565b611f7285611bda565b60005b83811015611f9457815481890152600182019150602081019050611f75565b838801955050505b50505092915050565b6000611fb18284611f22565b91508190509291505056fea264697066735822122092553ffc42201359fbd6166e85f2b127a7f4a817883d0c40d677650127e229c864736f6c63430008110033",
  "immutableReferences": {},
  "source": "// SPDX-License-Identifier: Unlicensed\n\npragma solidity ^0.8.7;\n\ncontract Zakat {\n    uint256 currentTime;\n    address owner;\n\n    constructor() {\n        owner = msg.sender;\n    }\n\n    struct ZakatIVC {\n        address walletAddress;\n        string zakatID;\n        string name;\n        string email;\n        string phoneNum;\n        uint amount;\n        uint256 date;\n        bool statusPayment;\n        string ipfsHash;\n    }\n\n    ZakatIVC[] public zvoice;\n\n    function store(string memory _zakatID, string memory _name, string memory _email, string memory _phoneNum, uint _amount, string memory _ipfsHash) public {\n        uint lastPayment = checkLastPaymentDate();\n        uint oneMonthInSeconds = 2592000; // 30 d x 24 h x 60 m x 60 s\n        currentTime = block.timestamp;\n        require(currentTime - lastPayment >= oneMonthInSeconds, \"Tunggu bulan berikutnya\");\n        zvoice.push(ZakatIVC(msg.sender, _zakatID, _name, _email, _phoneNum, _amount, currentTime, true, _ipfsHash));\n\n    }\n\n    function checkLastPaymentDate() private view returns (uint){\n        uint lastPayment=0;\n        for (uint i=0; i<zvoice.length; i++){\n            if(zvoice[i].walletAddress == msg.sender){\n                if(zvoice[i].date > lastPayment){\n                    lastPayment = zvoice[i].date;\n                }\n            }\n        }\n        return lastPayment;\n    }\n\n    function verifyFile(string memory _ipfsHash) public view returns (bool){\n        bool valid = false;\n        for (uint i = 0; i < zvoice.length; i++) {\n            if (keccak256(abi.encodePacked(zvoice[i].ipfsHash)) == keccak256(abi.encodePacked(_ipfsHash))) {\n                valid = true;\n                break;\n            }\n        }\n        return valid;\n    }\n\n    function getAll() public view returns(ZakatIVC[] memory){\n        ZakatIVC[] memory result = new ZakatIVC[](zvoice.length);\n        for(uint i=0;i<zvoice.length;i++){\n            result[i] = zvoice[i];\n        }\n        return result;\n    }\n\n    function getHistory(address _walletAddress) public view returns (string[] memory, uint256[] memory, uint[] memory, string[] memory) {\n        // require(msg.sender == _walletAddress, \"Address yang dimasukkan tidak sesuai dengan address anda\");\n        uint count = 0;\n        for (uint j=0; j < zvoice.length; j++){\n            if(zvoice[j].walletAddress == _walletAddress){\n                count++;\n            }\n        }\n        string[] memory _zakatID = new string[](count);\n        string[] memory _ipfsHash = new string[](count);\n        uint256[] memory _date = new uint256[](count);\n        uint[] memory _amount = new uint[](count);\n        uint i = 0;\n        for (uint j = 0; j < zvoice.length; j++) {\n            if (zvoice[j].walletAddress == _walletAddress) {\n                _zakatID[i] = zvoice[j].zakatID;\n                _date[i] = zvoice[j].date;\n                _amount[i] = zvoice[j].amount;\n                _ipfsHash[i] = zvoice[j].ipfsHash;\n                i++;\n            }\n        }\n        return (_zakatID, _date, _amount, _ipfsHash);\n    }\n}\n\n\n// ZAKAT-5215, JAJANG, jajang@gmail.com, 08123457789, 2500, qjwkdjwqkdjqwkjw\n// ZAKAT-1634, JAJANG, jajang@gmail.com, 08123457789, 2500, qmkdmqkmdkqdasfa\n// ZAKAT-1212, JAJANG, jajang@gmail.com, 08123457789, 2500\n// ZAKAT-4123, MUSANG, musang@gmail.com, 08123457789, 5000, qkwdlwqdlqwmdqlwm\n// ZAKAT-7724, EKOR, ekor@gmail.com, 08123457789, 10000",
  "sourcePath": "/home/ardias/Desktop/Development/Blockchain/TA/zakat/contracts/Zakat.sol",
  "compiler": {
    "name": "solc",
    "version": "0.8.17+commit.8df45f5f.Emscripten.clang"
  },
  "schemaVersion": "3.4.10",
  "updatedAt": "2023-01-15T13:26:21.900Z",
  "networkType": "ethereum",
  "devdoc": {
    "kind": "dev",
    "methods": {},
    "version": 1
  },
  "userdoc": {
    "kind": "user",
    "methods": {},
    "version": 1
  }
}