{
  "contractName": "Zakat",
  "abi": [
    {
      "inputs": [],
      "stateMutability": "nonpayable",
      "type": "constructor"
    },
    {
      "inputs": [
        {
          "internalType": "uint256",
          "name": "",
          "type": "uint256"
        }
      ],
      "name": "zvoice",
      "outputs": [
        {
          "internalType": "address",
          "name": "walletAddress",
          "type": "address"
        },
        {
          "internalType": "string",
          "name": "zakatID",
          "type": "string"
        },
        {
          "internalType": "string",
          "name": "name",
          "type": "string"
        },
        {
          "internalType": "string",
          "name": "email",
          "type": "string"
        },
        {
          "internalType": "string",
          "name": "phoneNum",
          "type": "string"
        },
        {
          "internalType": "uint256",
          "name": "amount",
          "type": "uint256"
        },
        {
          "internalType": "uint256",
          "name": "date",
          "type": "uint256"
        },
        {
          "internalType": "bool",
          "name": "statusPayment",
          "type": "bool"
        }
      ],
      "stateMutability": "view",
      "type": "function",
      "constant": true
    },
    {
      "inputs": [
        {
          "internalType": "string",
          "name": "_zakatID",
          "type": "string"
        },
        {
          "internalType": "string",
          "name": "_name",
          "type": "string"
        },
        {
          "internalType": "string",
          "name": "_email",
          "type": "string"
        },
        {
          "internalType": "string",
          "name": "_phoneNum",
          "type": "string"
        },
        {
          "internalType": "uint256",
          "name": "_amount",
          "type": "uint256"
        }
      ],
      "name": "store",
      "outputs": [],
      "stateMutability": "nonpayable",
      "type": "function"
    },
    {
      "inputs": [
        {
          "internalType": "string",
          "name": "_zakatID",
          "type": "string"
        }
      ],
      "name": "getSingle",
      "outputs": [
        {
          "internalType": "address",
          "name": "",
          "type": "address"
        },
        {
          "internalType": "string",
          "name": "",
          "type": "string"
        },
        {
          "internalType": "string",
          "name": "",
          "type": "string"
        },
        {
          "internalType": "string",
          "name": "",
          "type": "string"
        },
        {
          "internalType": "string",
          "name": "",
          "type": "string"
        },
        {
          "internalType": "uint256",
          "name": "",
          "type": "uint256"
        },
        {
          "internalType": "uint256",
          "name": "",
          "type": "uint256"
        },
        {
          "internalType": "bool",
          "name": "",
          "type": "bool"
        }
      ],
      "stateMutability": "view",
      "type": "function",
      "constant": true
    },
    {
      "inputs": [],
      "name": "getAll",
      "outputs": [
        {
          "components": [
            {
              "internalType": "address",
              "name": "walletAddress",
              "type": "address"
            },
            {
              "internalType": "string",
              "name": "zakatID",
              "type": "string"
            },
            {
              "internalType": "string",
              "name": "name",
              "type": "string"
            },
            {
              "internalType": "string",
              "name": "email",
              "type": "string"
            },
            {
              "internalType": "string",
              "name": "phoneNum",
              "type": "string"
            },
            {
              "internalType": "uint256",
              "name": "amount",
              "type": "uint256"
            },
            {
              "internalType": "uint256",
              "name": "date",
              "type": "uint256"
            },
            {
              "internalType": "bool",
              "name": "statusPayment",
              "type": "bool"
            }
          ],
          "internalType": "struct Zakat.ZakatIVC[]",
          "name": "",
          "type": "tuple[]"
        }
      ],
      "stateMutability": "view",
      "type": "function",
      "constant": true
    }
  ],
  "bytecode": "0x608060405234801561001057600080fd5b5033600160006101000a81548173ffffffffffffffffffffffffffffffffffffffff021916908373ffffffffffffffffffffffffffffffffffffffff1602179055504260008190555061198b806100686000396000f3fe608060405234801561001057600080fd5b506004361061004c5760003560e01c806304782b581461005157806353ed5143146100885780635960b81e146100a6578063c437019e146100dd575b600080fd5b61006b60048036038101906100669190610fa9565b6100f9565b60405161007f9897969594939291906110e6565b60405180910390f35b610090610597565b60405161009d919061137e565b60405180910390f35b6100c060048036038101906100bb91906113cc565b61093a565b6040516100d49897969594939291906110e6565b60405180910390f35b6100f760048036038101906100f291906113f9565b610bdf565b005b60006060806060806000806000806101108a610d3b565b9050896040516020016101239190611520565b604051602081830303815290604052805190602001206002828154811061014d5761014c611537565b5b906000526020600020906008020160010160405160200161016e919061165e565b6040516020818303038152906040528051906020012003610528576002818154811061019d5761019c611537565b5b906000526020600020906008020160000160009054906101000a900473ffffffffffffffffffffffffffffffffffffffff16600282815481106101e3576101e2611537565b5b90600052602060002090600802016001016002838154811061020857610207611537565b5b90600052602060002090600802016002016002848154811061022d5761022c611537565b5b90600052602060002090600802016003016002858154811061025257610251611537565b5b90600052602060002090600802016004016002868154811061027757610276611537565b5b9060005260206000209060080201600501546002878154811061029d5761029c611537565b5b906000526020600020906008020160060154600288815481106102c3576102c2611537565b5b906000526020600020906008020160070160009054906101000a900460ff168680546102ee90611595565b80601f016020809104026020016040519081016040528092919081815260200182805461031a90611595565b80156103675780601f1061033c57610100808354040283529160200191610367565b820191906000526020600020905b81548152906001019060200180831161034a57829003601f168201915b5050505050965085805461037a90611595565b80601f01602080910402602001604051908101604052809291908181526020018280546103a690611595565b80156103f35780601f106103c8576101008083540402835291602001916103f3565b820191906000526020600020905b8154815290600101906020018083116103d657829003601f168201915b5050505050955084805461040690611595565b80601f016020809104026020016040519081016040528092919081815260200182805461043290611595565b801561047f5780601f106104545761010080835404028352916020019161047f565b820191906000526020600020905b81548152906001019060200180831161046257829003601f168201915b5050505050945083805461049290611595565b80601f01602080910402602001604051908101604052809291908181526020018280546104be90611595565b801561050b5780601f106104e05761010080835404028352916020019161050b565b820191906000526020600020905b8154815290600101906020018083116104ee57829003601f168201915b50505050509350985098509850985098509850985098505061058c565b6000806000806040518060200160405280600081525092919060405180602001604052806000815250929190604051806020016040528060008152509291906040518060200160405280600081525092919098509850985098509850985098509850505b919395975091939597565b6060600060028054905067ffffffffffffffff8111156105ba576105b9610e7e565b5b6040519080825280602002602001820160405280156105f357816020015b6105e0610df2565b8152602001906001900390816105d85790505b50905060005b600280549050811015610932576002818154811061061a57610619611537565b5b9060005260206000209060080201604051806101000160405290816000820160009054906101000a900473ffffffffffffffffffffffffffffffffffffffff1673ffffffffffffffffffffffffffffffffffffffff1673ffffffffffffffffffffffffffffffffffffffff16815260200160018201805461069a90611595565b80601f01602080910402602001604051908101604052809291908181526020018280546106c690611595565b80156107135780601f106106e857610100808354040283529160200191610713565b820191906000526020600020905b8154815290600101906020018083116106f657829003601f168201915b5050505050815260200160028201805461072c90611595565b80601f016020809104026020016040519081016040528092919081815260200182805461075890611595565b80156107a55780601f1061077a576101008083540402835291602001916107a5565b820191906000526020600020905b81548152906001019060200180831161078857829003601f168201915b505050505081526020016003820180546107be90611595565b80601f01602080910402602001604051908101604052809291908181526020018280546107ea90611595565b80156108375780601f1061080c57610100808354040283529160200191610837565b820191906000526020600020905b81548152906001019060200180831161081a57829003601f168201915b5050505050815260200160048201805461085090611595565b80601f016020809104026020016040519081016040528092919081815260200182805461087c90611595565b80156108c95780601f1061089e576101008083540402835291602001916108c9565b820191906000526020600020905b8154815290600101906020018083116108ac57829003601f168201915b5050505050815260200160058201548152602001600682015481526020016007820160009054906101000a900460ff16151515158152505082828151811061091457610913611537565b5b6020026020010181905250808061092a906116a4565b9150506105f9565b508091505090565b6002818154811061094a57600080fd5b90600052602060002090600802016000915090508060000160009054906101000a900473ffffffffffffffffffffffffffffffffffffffff169080600101805461099390611595565b80601f01602080910402602001604051908101604052809291908181526020018280546109bf90611595565b8015610a0c5780601f106109e157610100808354040283529160200191610a0c565b820191906000526020600020905b8154815290600101906020018083116109ef57829003601f168201915b505050505090806002018054610a2190611595565b80601f0160208091040260200160405190810160405280929190818152602001828054610a4d90611595565b8015610a9a5780601f10610a6f57610100808354040283529160200191610a9a565b820191906000526020600020905b815481529060010190602001808311610a7d57829003601f168201915b505050505090806003018054610aaf90611595565b80601f0160208091040260200160405190810160405280929190818152602001828054610adb90611595565b8015610b285780601f10610afd57610100808354040283529160200191610b28565b820191906000526020600020905b815481529060010190602001808311610b0b57829003601f168201915b505050505090806004018054610b3d90611595565b80601f0160208091040260200160405190810160405280929190818152602001828054610b6990611595565b8015610bb65780601f10610b8b57610100808354040283529160200191610bb6565b820191906000526020600020905b815481529060010190602001808311610b9957829003601f168201915b5050505050908060050154908060060154908060070160009054906101000a900460ff16905088565b60026040518061010001604052803373ffffffffffffffffffffffffffffffffffffffff168152602001878152602001868152602001858152602001848152602001838152602001600054815260200160011515815250908060018154018082558091505060019003906000526020600020906008020160009091909190915060008201518160000160006101000a81548173ffffffffffffffffffffffffffffffffffffffff021916908373ffffffffffffffffffffffffffffffffffffffff1602179055506020820151816001019081610cbb9190611883565b506040820151816002019081610cd19190611883565b506060820151816003019081610ce79190611883565b506080820151816004019081610cfd9190611883565b5060a0820151816005015560c0820151816006015560e08201518160070160006101000a81548160ff02191690831515021790555050505050505050565b600080600090505b600280549050811015610de35782604051602001610d619190611520565b6040516020818303038152906040528051906020012060028281548110610d8b57610d8a611537565b5b9060005260206000209060080201600101604051602001610dac919061165e565b6040516020818303038152906040528051906020012003610dd05780915050610ded565b8080610ddb906116a4565b915050610d43565b5060028054905090505b919050565b604051806101000160405280600073ffffffffffffffffffffffffffffffffffffffff1681526020016060815260200160608152602001606081526020016060815260200160008152602001600081526020016000151581525090565b6000604051905090565b600080fd5b600080fd5b600080fd5b600080fd5b6000601f19601f8301169050919050565b7f4e487b7100000000000000000000000000000000000000000000000000000000600052604160045260246000fd5b610eb682610e6d565b810181811067ffffffffffffffff82111715610ed557610ed4610e7e565b5b80604052505050565b6000610ee8610e4f565b9050610ef48282610ead565b919050565b600067ffffffffffffffff821115610f1457610f13610e7e565b5b610f1d82610e6d565b9050602081019050919050565b82818337600083830152505050565b6000610f4c610f4784610ef9565b610ede565b905082815260208101848484011115610f6857610f67610e68565b5b610f73848285610f2a565b509392505050565b600082601f830112610f9057610f8f610e63565b5b8135610fa0848260208601610f39565b91505092915050565b600060208284031215610fbf57610fbe610e59565b5b600082013567ffffffffffffffff811115610fdd57610fdc610e5e565b5b610fe984828501610f7b565b91505092915050565b600073ffffffffffffffffffffffffffffffffffffffff82169050919050565b600061101d82610ff2565b9050919050565b61102d81611012565b82525050565b600081519050919050565b600082825260208201905092915050565b60005b8381101561106d578082015181840152602081019050611052565b60008484015250505050565b600061108482611033565b61108e818561103e565b935061109e81856020860161104f565b6110a781610e6d565b840191505092915050565b6000819050919050565b6110c5816110b2565b82525050565b60008115159050919050565b6110e0816110cb565b82525050565b6000610100820190506110fc600083018b611024565b818103602083015261110e818a611079565b905081810360408301526111228189611079565b905081810360608301526111368188611079565b9050818103608083015261114a8187611079565b905061115960a08301866110bc565b61116660c08301856110bc565b61117360e08301846110d7565b9998505050505050505050565b600081519050919050565b600082825260208201905092915050565b6000819050602082019050919050565b6111b581611012565b82525050565b600082825260208201905092915050565b60006111d782611033565b6111e181856111bb565b93506111f181856020860161104f565b6111fa81610e6d565b840191505092915050565b61120e816110b2565b82525050565b61121d816110cb565b82525050565b60006101008301600083015161123c60008601826111ac565b506020830151848203602086015261125482826111cc565b9150506040830151848203604086015261126e82826111cc565b9150506060830151848203606086015261128882826111cc565b915050608083015184820360808601526112a282826111cc565b91505060a08301516112b760a0860182611205565b5060c08301516112ca60c0860182611205565b5060e08301516112dd60e0860182611214565b508091505092915050565b60006112f48383611223565b905092915050565b6000602082019050919050565b600061131482611180565b61131e818561118b565b9350836020820285016113308561119c565b8060005b8581101561136c578484038952815161134d85826112e8565b9450611358836112fc565b925060208a01995050600181019050611334565b50829750879550505050505092915050565b600060208201905081810360008301526113988184611309565b905092915050565b6113a9816110b2565b81146113b457600080fd5b50565b6000813590506113c6816113a0565b92915050565b6000602082840312156113e2576113e1610e59565b5b60006113f0848285016113b7565b91505092915050565b600080600080600060a0868803121561141557611414610e59565b5b600086013567ffffffffffffffff81111561143357611432610e5e565b5b61143f88828901610f7b565b955050602086013567ffffffffffffffff8111156114605761145f610e5e565b5b61146c88828901610f7b565b945050604086013567ffffffffffffffff81111561148d5761148c610e5e565b5b61149988828901610f7b565b935050606086013567ffffffffffffffff8111156114ba576114b9610e5e565b5b6114c688828901610f7b565b92505060806114d7888289016113b7565b9150509295509295909350565b600081905092915050565b60006114fa82611033565b61150481856114e4565b935061151481856020860161104f565b80840191505092915050565b600061152c82846114ef565b915081905092915050565b7f4e487b7100000000000000000000000000000000000000000000000000000000600052603260045260246000fd5b7f4e487b7100000000000000000000000000000000000000000000000000000000600052602260045260246000fd5b600060028204905060018216806115ad57607f821691505b6020821081036115c0576115bf611566565b5b50919050565b60008190508160005260206000209050919050565b600081546115e881611595565b6115f281866114e4565b9450600182166000811461160d576001811461162257611655565b60ff1983168652811515820286019350611655565b61162b856115c6565b60005b8381101561164d5781548189015260018201915060208101905061162e565b838801955050505b50505092915050565b600061166a82846115db565b915081905092915050565b7f4e487b7100000000000000000000000000000000000000000000000000000000600052601160045260246000fd5b60006116af826110b2565b91507fffffffffffffffffffffffffffffffffffffffffffffffffffffffffffffffff82036116e1576116e0611675565b5b600182019050919050565b60006020601f8301049050919050565b600082821b905092915050565b6000600883026117397fffffffffffffffffffffffffffffffffffffffffffffffffffffffffffffffff826116fc565b61174386836116fc565b95508019841693508086168417925050509392505050565b6000819050919050565b600061178061177b611776846110b2565b61175b565b6110b2565b9050919050565b6000819050919050565b61179a83611765565b6117ae6117a682611787565b848454611709565b825550505050565b600090565b6117c36117b6565b6117ce818484611791565b505050565b5b818110156117f2576117e76000826117bb565b6001810190506117d4565b5050565b601f82111561183757611808816115c6565b611811846116ec565b81016020851015611820578190505b61183461182c856116ec565b8301826117d3565b50505b505050565b600082821c905092915050565b600061185a6000198460080261183c565b1980831691505092915050565b60006118738383611849565b9150826002028217905092915050565b61188c82611033565b67ffffffffffffffff8111156118a5576118a4610e7e565b5b6118af8254611595565b6118ba8282856117f6565b600060209050601f8311600181146118ed57600084156118db578287015190505b6118e58582611867565b86555061194d565b601f1984166118fb866115c6565b60005b82811015611923578489015182556001820191506020850194506020810190506118fe565b86831015611940578489015161193c601f891682611849565b8355505b6001600288020188555050505b50505050505056fea2646970667358221220533923ba042fcd25ca4d30b0907284278bdc07650e1dead7e1da5fdd631993b164736f6c63430008110033",
  "immutableReferences": {},
  "source": "// SPDX-License-Identifier: Unlicensed\n\npragma solidity ^0.8.7;\n\ncontract Zakat {\n    uint256 currentTime;\n    address owner;\n\n    constructor() {\n        owner = msg.sender;\n        currentTime = block.timestamp;\n    }\n\n    struct ZakatIVC {\n        address walletAddress;\n        string zakatID;\n        string name;\n        string email;\n        string phoneNum;\n        uint amount;\n        uint256 date;\n        bool statusPayment;\n    }\n\n    ZakatIVC[] public zvoice;\n\n    function store(string memory _zakatID, string memory _name, string memory _email, string memory _phoneNum, uint _amount) public {\n        zvoice.push(ZakatIVC(msg.sender, _zakatID, _name, _email, _phoneNum, _amount, currentTime, true));\n    }\n\n    function getSingle(string memory _zakatID) public view returns(address, string memory, string memory, string memory, string memory, uint, uint256, bool){\n        uint i = getIdx(_zakatID);\n        if(keccak256(abi.encodePacked(zvoice[i].zakatID)) == keccak256(abi.encodePacked(_zakatID))){\n            return(zvoice[i].walletAddress, zvoice[i].zakatID, zvoice[i].name, zvoice[i].email, zvoice[i].phoneNum, zvoice[i].amount, zvoice[i].date, zvoice[i].statusPayment);\n        }\n        return(address(0x0), '', '', '', '', 0, 0, false);\n    }\n\n    function getAll() public view returns(ZakatIVC[] memory){\n        ZakatIVC[] memory result = new ZakatIVC[](zvoice.length);\n        for(uint i=0;i<zvoice.length;i++){\n            result[i] = zvoice[i];\n        }\n        return result;\n    }\n\n    function getIdx(string memory _zakatID) view private returns(uint){\n        for(uint i=0; i<zvoice.length; i++){\n            if(keccak256(abi.encodePacked(zvoice[i].zakatID)) == keccak256(abi.encodePacked(_zakatID))){\n                return i;\n            }\n        }\n        return zvoice.length;\n    }\n}\n\n// ZAKAT-5215, JAJANG, jajang@gmail.com, 08123457789, 2500\n// ZAKAT-4123, MUSANG, musang@gmail.com, 08123457789, 5000\n// ZAKAT-7724, EKOR, ekor@gmail.com, 08123457789, 10000",
  "sourcePath": "/home/ardias/Desktop/Development/Blockchain/TA/zakat/contracts/Zakat.sol",
  "compiler": {
    "name": "solc",
    "version": "0.8.17+commit.8df45f5f.Emscripten.clang"
  },
  "schemaVersion": "3.4.10",
  "updatedAt": "2022-12-29T01:50:34.986Z",
  "networkType": "ethereum",
  "devdoc": {
    "kind": "dev",
    "methods": {},
    "version": 1
  },
  "userdoc": {
    "kind": "user",
    "methods": {},
    "version": 1
  }
}