{
  "contractName": "Zakat",
  "abi": [
    {
      "inputs": [],
      "stateMutability": "nonpayable",
      "type": "constructor"
    },
    {
      "inputs": [
        {
          "internalType": "uint256",
          "name": "",
          "type": "uint256"
        }
      ],
      "name": "pg",
      "outputs": [
        {
          "internalType": "string",
          "name": "extID",
          "type": "string"
        },
        {
          "internalType": "string",
          "name": "paymentMethod",
          "type": "string"
        },
        {
          "internalType": "uint256",
          "name": "amount",
          "type": "uint256"
        },
        {
          "internalType": "bool",
          "name": "status",
          "type": "bool"
        },
        {
          "internalType": "string",
          "name": "currency",
          "type": "string"
        },
        {
          "internalType": "string",
          "name": "paymentChannel",
          "type": "string"
        },
        {
          "internalType": "string",
          "name": "payerEmail",
          "type": "string"
        },
        {
          "internalType": "uint256",
          "name": "date",
          "type": "uint256"
        }
      ],
      "stateMutability": "view",
      "type": "function",
      "constant": true
    },
    {
      "inputs": [
        {
          "internalType": "uint256",
          "name": "",
          "type": "uint256"
        }
      ],
      "name": "zvoice",
      "outputs": [
        {
          "internalType": "address",
          "name": "walletAddress",
          "type": "address"
        },
        {
          "internalType": "string",
          "name": "zakatID",
          "type": "string"
        },
        {
          "internalType": "string",
          "name": "name",
          "type": "string"
        },
        {
          "internalType": "string",
          "name": "email",
          "type": "string"
        },
        {
          "internalType": "string",
          "name": "phoneNum",
          "type": "string"
        },
        {
          "internalType": "uint256",
          "name": "amount",
          "type": "uint256"
        },
        {
          "internalType": "uint256",
          "name": "date",
          "type": "uint256"
        },
        {
          "internalType": "bool",
          "name": "statusPayment",
          "type": "bool"
        },
        {
          "internalType": "string",
          "name": "ipfsHash",
          "type": "string"
        }
      ],
      "stateMutability": "view",
      "type": "function",
      "constant": true
    },
    {
      "inputs": [
        {
          "internalType": "string",
          "name": "_zakatID",
          "type": "string"
        },
        {
          "internalType": "string",
          "name": "_name",
          "type": "string"
        },
        {
          "internalType": "string",
          "name": "_email",
          "type": "string"
        },
        {
          "internalType": "string",
          "name": "_phoneNum",
          "type": "string"
        },
        {
          "internalType": "uint256",
          "name": "_amount",
          "type": "uint256"
        },
        {
          "internalType": "string",
          "name": "_ipfsHash",
          "type": "string"
        }
      ],
      "name": "store",
      "outputs": [],
      "stateMutability": "nonpayable",
      "type": "function"
    },
    {
      "inputs": [
        {
          "internalType": "string",
          "name": "_extID",
          "type": "string"
        },
        {
          "internalType": "string",
          "name": "_paymentMethod",
          "type": "string"
        },
        {
          "internalType": "uint256",
          "name": "_amount",
          "type": "uint256"
        },
        {
          "internalType": "bool",
          "name": "_status",
          "type": "bool"
        },
        {
          "internalType": "string",
          "name": "_currency",
          "type": "string"
        },
        {
          "internalType": "string",
          "name": "_paymentChannel",
          "type": "string"
        },
        {
          "internalType": "string",
          "name": "_payerEmail",
          "type": "string"
        }
      ],
      "name": "storePG",
      "outputs": [],
      "stateMutability": "nonpayable",
      "type": "function"
    },
    {
      "inputs": [],
      "name": "getPG",
      "outputs": [
        {
          "components": [
            {
              "internalType": "string",
              "name": "extID",
              "type": "string"
            },
            {
              "internalType": "string",
              "name": "paymentMethod",
              "type": "string"
            },
            {
              "internalType": "uint256",
              "name": "amount",
              "type": "uint256"
            },
            {
              "internalType": "bool",
              "name": "status",
              "type": "bool"
            },
            {
              "internalType": "string",
              "name": "currency",
              "type": "string"
            },
            {
              "internalType": "string",
              "name": "paymentChannel",
              "type": "string"
            },
            {
              "internalType": "string",
              "name": "payerEmail",
              "type": "string"
            },
            {
              "internalType": "uint256",
              "name": "date",
              "type": "uint256"
            }
          ],
          "internalType": "struct Zakat.PG[]",
          "name": "",
          "type": "tuple[]"
        }
      ],
      "stateMutability": "view",
      "type": "function",
      "constant": true
    },
    {
      "inputs": [
        {
          "internalType": "address",
          "name": "_walletAddress",
          "type": "address"
        }
      ],
      "name": "checkPayment",
      "outputs": [
        {
          "internalType": "bool",
          "name": "",
          "type": "bool"
        }
      ],
      "stateMutability": "view",
      "type": "function",
      "constant": true
    },
    {
      "inputs": [
        {
          "internalType": "string",
          "name": "_ipfsHash",
          "type": "string"
        }
      ],
      "name": "verifyFile",
      "outputs": [
        {
          "internalType": "bool",
          "name": "",
          "type": "bool"
        }
      ],
      "stateMutability": "view",
      "type": "function",
      "constant": true
    },
    {
      "inputs": [],
      "name": "getAll",
      "outputs": [
        {
          "components": [
            {
              "internalType": "address",
              "name": "walletAddress",
              "type": "address"
            },
            {
              "internalType": "string",
              "name": "zakatID",
              "type": "string"
            },
            {
              "internalType": "string",
              "name": "name",
              "type": "string"
            },
            {
              "internalType": "string",
              "name": "email",
              "type": "string"
            },
            {
              "internalType": "string",
              "name": "phoneNum",
              "type": "string"
            },
            {
              "internalType": "uint256",
              "name": "amount",
              "type": "uint256"
            },
            {
              "internalType": "uint256",
              "name": "date",
              "type": "uint256"
            },
            {
              "internalType": "bool",
              "name": "statusPayment",
              "type": "bool"
            },
            {
              "internalType": "string",
              "name": "ipfsHash",
              "type": "string"
            }
          ],
          "internalType": "struct Zakat.ZakatIVC[]",
          "name": "",
          "type": "tuple[]"
        }
      ],
      "stateMutability": "view",
      "type": "function",
      "constant": true
    },
    {
      "inputs": [
        {
          "internalType": "address",
          "name": "_walletAddress",
          "type": "address"
        }
      ],
      "name": "getHistory",
      "outputs": [
        {
          "internalType": "string[]",
          "name": "",
          "type": "string[]"
        },
        {
          "internalType": "uint256[]",
          "name": "",
          "type": "uint256[]"
        },
        {
          "internalType": "uint256[]",
          "name": "",
          "type": "uint256[]"
        },
        {
          "internalType": "string[]",
          "name": "",
          "type": "string[]"
        }
      ],
      "stateMutability": "view",
      "type": "function",
      "constant": true
    }
  ],
  "bytecode": "0x608060405234801561001057600080fd5b5033600160006101000a81548173ffffffffffffffffffffffffffffffffffffffff021916908373ffffffffffffffffffffffffffffffffffffffff160217905550612dbc806100616000396000f3fe608060405234801561001057600080fd5b50600436106100935760003560e01c806353ed51431161006657806353ed51431461011e5780635960b81e1461013c57806380396811146101745780638d001087146101a7578063b0271023146101de57610093565b806303e6a6f6146100985780631c1b2662146100b45780633b56fdc6146100d05780633d9bf09314610100575b600080fd5b6100b260048036038101906100ad9190611ceb565b61020e565b005b6100ce60048036038101906100c99190611e19565b6103b2565b005b6100ea60048036038101906100e59190611f90565b61057f565b6040516100f79190611fcc565b60405180910390f35b610108610699565b6040516101159190612212565b60405180910390f35b610126610a78565b60405161013391906123e6565b60405180910390f35b61015660048036038101906101519190612408565b610ead565b60405161016b9998979695949392919061249d565b60405180910390f35b61018e60048036038101906101899190611f90565b6111e0565b60405161019e94939291906126be565b60405180910390f35b6101c160048036038101906101bc9190612408565b6116b7565b6040516101d598979695949392919061271f565b60405180910390f35b6101f860048036038101906101f391906127c0565b6119c4565b6040516102059190611fcc565b60405180910390f35b600160009054906101000a900473ffffffffffffffffffffffffffffffffffffffff1673ffffffffffffffffffffffffffffffffffffffff163373ffffffffffffffffffffffffffffffffffffffff161461029e576040517f08c379a000000000000000000000000000000000000000000000000000000000815260040161029590612855565b60405180910390fd5b60036040518061010001604052808981526020018881526020018781526020018615158152602001858152602001848152602001838152602001428152509080600181540180825580915050600190039060005260206000209060080201600090919091909150600082015181600001908161031a9190612a81565b5060208201518160010190816103309190612a81565b506040820151816002015560608201518160030160006101000a81548160ff02191690831515021790555060808201518160040190816103709190612a81565b5060a08201518160050190816103869190612a81565b5060c082015181600601908161039c9190612a81565b5060e08201518160070155505050505050505050565b60006103bd3361057f565b90506001151581151514610406576040517f08c379a00000000000000000000000000000000000000000000000000000000081526004016103fd90612b9f565b60405180910390fd5b60026040518061012001604052803373ffffffffffffffffffffffffffffffffffffffff16815260200189815260200188815260200187815260200186815260200185815260200142815260200160011515815260200184815250908060018154018082558091505060019003906000526020600020906009020160009091909190915060008201518160000160006101000a81548173ffffffffffffffffffffffffffffffffffffffff021916908373ffffffffffffffffffffffffffffffffffffffff16021790555060208201518160010190816104e69190612a81565b5060408201518160020190816104fc9190612a81565b5060608201518160030190816105129190612a81565b5060808201518160040190816105289190612a81565b5060a0820151816005015560c0820151816006015560e08201518160070160006101000a81548160ff0219169083151502179055506101008201518160080190816105739190612a81565b50505050505050505050565b60008060009050600062278d00905060005b600280549050811015610680578473ffffffffffffffffffffffffffffffffffffffff16600282815481106105c9576105c8612bbf565b5b906000526020600020906009020160000160009054906101000a900473ffffffffffffffffffffffffffffffffffffffff1673ffffffffffffffffffffffffffffffffffffffff160361066d57826002828154811061062b5761062a612bbf565b5b906000526020600020906009020160060154111561066c576002818154811061065757610656612bbf565b5b90600052602060002090600902016006015492505b5b808061067890612c1d565b915050610591565b5080824261068e9190612c65565b101592505050919050565b6060600060038054905067ffffffffffffffff8111156106bc576106bb611b52565b5b6040519080825280602002602001820160405280156106f557816020015b6106e2611a78565b8152602001906001900390816106da5790505b50905060005b600380549050811015610a70576003818154811061071c5761071b612bbf565b5b906000526020600020906008020160405180610100016040529081600082018054610746906128a4565b80601f0160208091040260200160405190810160405280929190818152602001828054610772906128a4565b80156107bf5780601f10610794576101008083540402835291602001916107bf565b820191906000526020600020905b8154815290600101906020018083116107a257829003601f168201915b505050505081526020016001820180546107d8906128a4565b80601f0160208091040260200160405190810160405280929190818152602001828054610804906128a4565b80156108515780601f1061082657610100808354040283529160200191610851565b820191906000526020600020905b81548152906001019060200180831161083457829003601f168201915b50505050508152602001600282015481526020016003820160009054906101000a900460ff1615151515815260200160048201805461088f906128a4565b80601f01602080910402602001604051908101604052809291908181526020018280546108bb906128a4565b80156109085780601f106108dd57610100808354040283529160200191610908565b820191906000526020600020905b8154815290600101906020018083116108eb57829003601f168201915b50505050508152602001600582018054610921906128a4565b80601f016020809104026020016040519081016040528092919081815260200182805461094d906128a4565b801561099a5780601f1061096f5761010080835404028352916020019161099a565b820191906000526020600020905b81548152906001019060200180831161097d57829003601f168201915b505050505081526020016006820180546109b3906128a4565b80601f01602080910402602001604051908101604052809291908181526020018280546109df906128a4565b8015610a2c5780601f10610a0157610100808354040283529160200191610a2c565b820191906000526020600020905b815481529060010190602001808311610a0f57829003601f168201915b50505050508152602001600782015481525050828281518110610a5257610a51612bbf565b5b60200260200101819052508080610a6890612c1d565b9150506106fb565b508091505090565b6060600060028054905067ffffffffffffffff811115610a9b57610a9a611b52565b5b604051908082528060200260200182016040528015610ad457816020015b610ac1611abf565b815260200190600190039081610ab95790505b50905060005b600280549050811015610ea55760028181548110610afb57610afa612bbf565b5b9060005260206000209060090201604051806101200160405290816000820160009054906101000a900473ffffffffffffffffffffffffffffffffffffffff1673ffffffffffffffffffffffffffffffffffffffff1673ffffffffffffffffffffffffffffffffffffffff168152602001600182018054610b7b906128a4565b80601f0160208091040260200160405190810160405280929190818152602001828054610ba7906128a4565b8015610bf45780601f10610bc957610100808354040283529160200191610bf4565b820191906000526020600020905b815481529060010190602001808311610bd757829003601f168201915b50505050508152602001600282018054610c0d906128a4565b80601f0160208091040260200160405190810160405280929190818152602001828054610c39906128a4565b8015610c865780601f10610c5b57610100808354040283529160200191610c86565b820191906000526020600020905b815481529060010190602001808311610c6957829003601f168201915b50505050508152602001600382018054610c9f906128a4565b80601f0160208091040260200160405190810160405280929190818152602001828054610ccb906128a4565b8015610d185780601f10610ced57610100808354040283529160200191610d18565b820191906000526020600020905b815481529060010190602001808311610cfb57829003601f168201915b50505050508152602001600482018054610d31906128a4565b80601f0160208091040260200160405190810160405280929190818152602001828054610d5d906128a4565b8015610daa5780601f10610d7f57610100808354040283529160200191610daa565b820191906000526020600020905b815481529060010190602001808311610d8d57829003601f168201915b5050505050815260200160058201548152602001600682015481526020016007820160009054906101000a900460ff16151515158152602001600882018054610df2906128a4565b80601f0160208091040260200160405190810160405280929190818152602001828054610e1e906128a4565b8015610e6b5780601f10610e4057610100808354040283529160200191610e6b565b820191906000526020600020905b815481529060010190602001808311610e4e57829003601f168201915b505050505081525050828281518110610e8757610e86612bbf565b5b60200260200101819052508080610e9d90612c1d565b915050610ada565b508091505090565b60028181548110610ebd57600080fd5b90600052602060002090600902016000915090508060000160009054906101000a900473ffffffffffffffffffffffffffffffffffffffff1690806001018054610f06906128a4565b80601f0160208091040260200160405190810160405280929190818152602001828054610f32906128a4565b8015610f7f5780601f10610f5457610100808354040283529160200191610f7f565b820191906000526020600020905b815481529060010190602001808311610f6257829003601f168201915b505050505090806002018054610f94906128a4565b80601f0160208091040260200160405190810160405280929190818152602001828054610fc0906128a4565b801561100d5780601f10610fe25761010080835404028352916020019161100d565b820191906000526020600020905b815481529060010190602001808311610ff057829003601f168201915b505050505090806003018054611022906128a4565b80601f016020809104026020016040519081016040528092919081815260200182805461104e906128a4565b801561109b5780601f106110705761010080835404028352916020019161109b565b820191906000526020600020905b81548152906001019060200180831161107e57829003601f168201915b5050505050908060040180546110b0906128a4565b80601f01602080910402602001604051908101604052809291908181526020018280546110dc906128a4565b80156111295780601f106110fe57610100808354040283529160200191611129565b820191906000526020600020905b81548152906001019060200180831161110c57829003601f168201915b5050505050908060050154908060060154908060070160009054906101000a900460ff169080600801805461115d906128a4565b80601f0160208091040260200160405190810160405280929190818152602001828054611189906128a4565b80156111d65780601f106111ab576101008083540402835291602001916111d6565b820191906000526020600020905b8154815290600101906020018083116111b957829003601f168201915b5050505050905089565b6060806060806000805b600280549050811015611291578673ffffffffffffffffffffffffffffffffffffffff166002828154811061122257611221612bbf565b5b906000526020600020906009020160000160009054906101000a900473ffffffffffffffffffffffffffffffffffffffff1673ffffffffffffffffffffffffffffffffffffffff160361127e57818061127a90612c1d565b9250505b808061128990612c1d565b9150506111ea565b5060008167ffffffffffffffff8111156112ae576112ad611b52565b5b6040519080825280602002602001820160405280156112e157816020015b60608152602001906001900390816112cc5790505b50905060008267ffffffffffffffff811115611300576112ff611b52565b5b60405190808252806020026020018201604052801561133357816020015b606081526020019060019003908161131e5790505b50905060008367ffffffffffffffff81111561135257611351611b52565b5b6040519080825280602002602001820160405280156113805781602001602082028036833780820191505090505b50905060008467ffffffffffffffff81111561139f5761139e611b52565b5b6040519080825280602002602001820160405280156113cd5781602001602082028036833780820191505090505b5090506000805b60028054905081101561169d578b73ffffffffffffffffffffffffffffffffffffffff166002828154811061140c5761140b612bbf565b5b906000526020600020906009020160000160009054906101000a900473ffffffffffffffffffffffffffffffffffffffff1673ffffffffffffffffffffffffffffffffffffffff160361168a576002818154811061146d5761146c612bbf565b5b90600052602060002090600902016001018054611489906128a4565b80601f01602080910402602001604051908101604052809291908181526020018280546114b5906128a4565b80156115025780601f106114d757610100808354040283529160200191611502565b820191906000526020600020905b8154815290600101906020018083116114e557829003601f168201915b505050505086838151811061151a57611519612bbf565b5b60200260200101819052506002818154811061153957611538612bbf565b5b90600052602060002090600902016006015484838151811061155e5761155d612bbf565b5b6020026020010181815250506002818154811061157e5761157d612bbf565b5b9060005260206000209060090201600501548383815181106115a3576115a2612bbf565b5b602002602001018181525050600281815481106115c3576115c2612bbf565b5b906000526020600020906009020160080180546115df906128a4565b80601f016020809104026020016040519081016040528092919081815260200182805461160b906128a4565b80156116585780601f1061162d57610100808354040283529160200191611658565b820191906000526020600020905b81548152906001019060200180831161163b57829003601f168201915b50505050508583815181106116705761166f612bbf565b5b6020026020010181905250818061168690612c1d565b9250505b808061169590612c1d565b9150506113d4565b508483838699509950995099505050505050509193509193565b600381815481106116c757600080fd5b90600052602060002090600802016000915090508060000180546116ea906128a4565b80601f0160208091040260200160405190810160405280929190818152602001828054611716906128a4565b80156117635780601f1061173857610100808354040283529160200191611763565b820191906000526020600020905b81548152906001019060200180831161174657829003601f168201915b505050505090806001018054611778906128a4565b80601f01602080910402602001604051908101604052809291908181526020018280546117a4906128a4565b80156117f15780601f106117c6576101008083540402835291602001916117f1565b820191906000526020600020905b8154815290600101906020018083116117d457829003601f168201915b5050505050908060020154908060030160009054906101000a900460ff169080600401805461181f906128a4565b80601f016020809104026020016040519081016040528092919081815260200182805461184b906128a4565b80156118985780601f1061186d57610100808354040283529160200191611898565b820191906000526020600020905b81548152906001019060200180831161187b57829003601f168201915b5050505050908060050180546118ad906128a4565b80601f01602080910402602001604051908101604052809291908181526020018280546118d9906128a4565b80156119265780601f106118fb57610100808354040283529160200191611926565b820191906000526020600020905b81548152906001019060200180831161190957829003601f168201915b50505050509080600601805461193b906128a4565b80601f0160208091040260200160405190810160405280929190818152602001828054611967906128a4565b80156119b45780601f10611989576101008083540402835291602001916119b4565b820191906000526020600020905b81548152906001019060200180831161199757829003601f168201915b5050505050908060070154905088565b6000806000905060005b600280549050811015611a6e57836040516020016119ec9190612cd5565b6040516020818303038152906040528051906020012060028281548110611a1657611a15612bbf565b5b9060005260206000209060090201600801604051602001611a379190612d6f565b6040516020818303038152906040528051906020012003611a5b5760019150611a6e565b8080611a6690612c1d565b9150506119ce565b5080915050919050565b604051806101000160405280606081526020016060815260200160008152602001600015158152602001606081526020016060815260200160608152602001600081525090565b604051806101200160405280600073ffffffffffffffffffffffffffffffffffffffff168152602001606081526020016060815260200160608152602001606081526020016000815260200160008152602001600015158152602001606081525090565b6000604051905090565b600080fd5b600080fd5b600080fd5b600080fd5b6000601f19601f8301169050919050565b7f4e487b7100000000000000000000000000000000000000000000000000000000600052604160045260246000fd5b611b8a82611b41565b810181811067ffffffffffffffff82111715611ba957611ba8611b52565b5b80604052505050565b6000611bbc611b23565b9050611bc88282611b81565b919050565b600067ffffffffffffffff821115611be857611be7611b52565b5b611bf182611b41565b9050602081019050919050565b82818337600083830152505050565b6000611c20611c1b84611bcd565b611bb2565b905082815260208101848484011115611c3c57611c3b611b3c565b5b611c47848285611bfe565b509392505050565b600082601f830112611c6457611c63611b37565b5b8135611c74848260208601611c0d565b91505092915050565b6000819050919050565b611c9081611c7d565b8114611c9b57600080fd5b50565b600081359050611cad81611c87565b92915050565b60008115159050919050565b611cc881611cb3565b8114611cd357600080fd5b50565b600081359050611ce581611cbf565b92915050565b600080600080600080600060e0888a031215611d0a57611d09611b2d565b5b600088013567ffffffffffffffff811115611d2857611d27611b32565b5b611d348a828b01611c4f565b975050602088013567ffffffffffffffff811115611d5557611d54611b32565b5b611d618a828b01611c4f565b9650506040611d728a828b01611c9e565b9550506060611d838a828b01611cd6565b945050608088013567ffffffffffffffff811115611da457611da3611b32565b5b611db08a828b01611c4f565b93505060a088013567ffffffffffffffff811115611dd157611dd0611b32565b5b611ddd8a828b01611c4f565b92505060c088013567ffffffffffffffff811115611dfe57611dfd611b32565b5b611e0a8a828b01611c4f565b91505092959891949750929550565b60008060008060008060c08789031215611e3657611e35611b2d565b5b600087013567ffffffffffffffff811115611e5457611e53611b32565b5b611e6089828a01611c4f565b965050602087013567ffffffffffffffff811115611e8157611e80611b32565b5b611e8d89828a01611c4f565b955050604087013567ffffffffffffffff811115611eae57611ead611b32565b5b611eba89828a01611c4f565b945050606087013567ffffffffffffffff811115611edb57611eda611b32565b5b611ee789828a01611c4f565b9350506080611ef889828a01611c9e565b92505060a087013567ffffffffffffffff811115611f1957611f18611b32565b5b611f2589828a01611c4f565b9150509295509295509295565b600073ffffffffffffffffffffffffffffffffffffffff82169050919050565b6000611f5d82611f32565b9050919050565b611f6d81611f52565b8114611f7857600080fd5b50565b600081359050611f8a81611f64565b92915050565b600060208284031215611fa657611fa5611b2d565b5b6000611fb484828501611f7b565b91505092915050565b611fc681611cb3565b82525050565b6000602082019050611fe16000830184611fbd565b92915050565b600081519050919050565b600082825260208201905092915050565b6000819050602082019050919050565b600081519050919050565b600082825260208201905092915050565b60005b8381101561204d578082015181840152602081019050612032565b60008484015250505050565b600061206482612013565b61206e818561201e565b935061207e81856020860161202f565b61208781611b41565b840191505092915050565b61209b81611c7d565b82525050565b6120aa81611cb3565b82525050565b60006101008301600083015184820360008601526120ce8282612059565b915050602083015184820360208601526120e88282612059565b91505060408301516120fd6040860182612092565b50606083015161211060608601826120a1565b50608083015184820360808601526121288282612059565b91505060a083015184820360a08601526121428282612059565b91505060c083015184820360c086015261215c8282612059565b91505060e083015161217160e0860182612092565b508091505092915050565b600061218883836120b0565b905092915050565b6000602082019050919050565b60006121a882611fe7565b6121b28185611ff2565b9350836020820285016121c485612003565b8060005b8581101561220057848403895281516121e1858261217c565b94506121ec83612190565b925060208a019950506001810190506121c8565b50829750879550505050505092915050565b6000602082019050818103600083015261222c818461219d565b905092915050565b600081519050919050565b600082825260208201905092915050565b6000819050602082019050919050565b61226981611f52565b82525050565b6000610120830160008301516122886000860182612260565b50602083015184820360208601526122a08282612059565b915050604083015184820360408601526122ba8282612059565b915050606083015184820360608601526122d48282612059565b915050608083015184820360808601526122ee8282612059565b91505060a083015161230360a0860182612092565b5060c083015161231660c0860182612092565b5060e083015161232960e08601826120a1565b506101008301518482036101008601526123438282612059565b9150508091505092915050565b600061235c838361226f565b905092915050565b6000602082019050919050565b600061237c82612234565b612386818561223f565b93508360208202850161239885612250565b8060005b858110156123d457848403895281516123b58582612350565b94506123c083612364565b925060208a0199505060018101905061239c565b50829750879550505050505092915050565b600060208201905081810360008301526124008184612371565b905092915050565b60006020828403121561241e5761241d611b2d565b5b600061242c84828501611c9e565b91505092915050565b61243e81611f52565b82525050565b600082825260208201905092915050565b600061246082612013565b61246a8185612444565b935061247a81856020860161202f565b61248381611b41565b840191505092915050565b61249781611c7d565b82525050565b6000610120820190506124b3600083018c612435565b81810360208301526124c5818b612455565b905081810360408301526124d9818a612455565b905081810360608301526124ed8189612455565b905081810360808301526125018188612455565b905061251060a083018761248e565b61251d60c083018661248e565b61252a60e0830185611fbd565b81810361010083015261253d8184612455565b90509a9950505050505050505050565b600081519050919050565b600082825260208201905092915050565b6000819050602082019050919050565b60006125858383612059565b905092915050565b6000602082019050919050565b60006125a58261254d565b6125af8185612558565b9350836020820285016125c185612569565b8060005b858110156125fd57848403895281516125de8582612579565b94506125e98361258d565b925060208a019950506001810190506125c5565b50829750879550505050505092915050565b600081519050919050565b600082825260208201905092915050565b6000819050602082019050919050565b60006126478383612092565b60208301905092915050565b6000602082019050919050565b600061266b8261260f565b612675818561261a565b93506126808361262b565b8060005b838110156126b1578151612698888261263b565b97506126a383612653565b925050600181019050612684565b5085935050505092915050565b600060808201905081810360008301526126d8818761259a565b905081810360208301526126ec8186612660565b905081810360408301526127008185612660565b90508181036060830152612714818461259a565b905095945050505050565b600061010082019050818103600083015261273a818b612455565b9050818103602083015261274e818a612455565b905061275d604083018961248e565b61276a6060830188611fbd565b818103608083015261277c8187612455565b905081810360a08301526127908186612455565b905081810360c08301526127a48185612455565b90506127b360e083018461248e565b9998505050505050505050565b6000602082840312156127d6576127d5611b2d565b5b600082013567ffffffffffffffff8111156127f4576127f3611b32565b5b61280084828501611c4f565b91505092915050565b7f416e646120746964616b206d656d696c696b6920616b73657300000000000000600082015250565b600061283f601983612444565b915061284a82612809565b602082019050919050565b6000602082019050818103600083015261286e81612832565b9050919050565b7f4e487b7100000000000000000000000000000000000000000000000000000000600052602260045260246000fd5b600060028204905060018216806128bc57607f821691505b6020821081036128cf576128ce612875565b5b50919050565b60008190508160005260206000209050919050565b60006020601f8301049050919050565b600082821b905092915050565b6000600883026129377fffffffffffffffffffffffffffffffffffffffffffffffffffffffffffffffff826128fa565b61294186836128fa565b95508019841693508086168417925050509392505050565b6000819050919050565b600061297e61297961297484611c7d565b612959565b611c7d565b9050919050565b6000819050919050565b61299883612963565b6129ac6129a482612985565b848454612907565b825550505050565b600090565b6129c16129b4565b6129cc81848461298f565b505050565b5b818110156129f0576129e56000826129b9565b6001810190506129d2565b5050565b601f821115612a3557612a06816128d5565b612a0f846128ea565b81016020851015612a1e578190505b612a32612a2a856128ea565b8301826129d1565b50505b505050565b600082821c905092915050565b6000612a5860001984600802612a3a565b1980831691505092915050565b6000612a718383612a47565b9150826002028217905092915050565b612a8a82612013565b67ffffffffffffffff811115612aa357612aa2611b52565b5b612aad82546128a4565b612ab88282856129f4565b600060209050601f831160018114612aeb5760008415612ad9578287015190505b612ae38582612a65565b865550612b4b565b601f198416612af9866128d5565b60005b82811015612b2157848901518255600182019150602085019450602081019050612afc565b86831015612b3e5784890151612b3a601f891682612a47565b8355505b6001600288020188555050505b505050505050565b7f54756e6767752062756c616e20626572696b75746e7961000000000000000000600082015250565b6000612b89601783612444565b9150612b9482612b53565b602082019050919050565b60006020820190508181036000830152612bb881612b7c565b9050919050565b7f4e487b7100000000000000000000000000000000000000000000000000000000600052603260045260246000fd5b7f4e487b7100000000000000000000000000000000000000000000000000000000600052601160045260246000fd5b6000612c2882611c7d565b91507fffffffffffffffffffffffffffffffffffffffffffffffffffffffffffffffff8203612c5a57612c59612bee565b5b600182019050919050565b6000612c7082611c7d565b9150612c7b83611c7d565b9250828203905081811115612c9357612c92612bee565b5b92915050565b600081905092915050565b6000612caf82612013565b612cb98185612c99565b9350612cc981856020860161202f565b80840191505092915050565b6000612ce18284612ca4565b915081905092915050565b60008154612cf9816128a4565b612d038186612c99565b94506001821660008114612d1e5760018114612d3357612d66565b60ff1983168652811515820286019350612d66565b612d3c856128d5565b60005b83811015612d5e57815481890152600182019150602081019050612d3f565b838801955050505b50505092915050565b6000612d7b8284612cec565b91508190509291505056fea264697066735822122020f930c1a7e6e3f52af45c3bc25e33a3f1abb0bdcda40f43cf695df437aa5cfa64736f6c63430008110033",
  "immutableReferences": {},
  "source": "// SPDX-License-Identifier: Unlicensed\n\npragma solidity ^0.8.7;\n\ncontract Zakat {\n    uint256 currentTime;\n    address owner;\n\n    constructor() {\n        owner = msg.sender;\n    }\n\n    struct ZakatIVC {\n        address walletAddress;\n        string zakatID;\n        string name;\n        string email;\n        string phoneNum;\n        uint256 amount;\n        uint256 date;\n        bool statusPayment;\n        string ipfsHash;\n    }\n\n    struct PG {\n        string extID;\n        string paymentMethod;\n        uint256 amount;\n        bool status;\n        string currency;\n        string paymentChannel;\n        string payerEmail;\n        uint256 date;\n    }\n\n    ZakatIVC[] public zvoice;\n    PG[] public pg;\n\n    function store(\n        string memory _zakatID,\n        string memory _name,\n        string memory _email,\n        string memory _phoneNum,\n        uint256 _amount,\n        string memory _ipfsHash\n    ) public {\n        bool status = checkPayment(msg.sender);\n        require(status == true, \"Tunggu bulan berikutnya\");\n        zvoice.push(\n            ZakatIVC(\n                msg.sender,\n                _zakatID,\n                _name,\n                _email,\n                _phoneNum,\n                _amount,\n                block.timestamp,\n                true,\n                _ipfsHash\n            )\n        );\n    }\n\n    function storePG(\n        string memory _extID,\n        string memory _paymentMethod,\n        uint256 _amount,\n        bool _status,\n        string memory _currency,\n        string memory _paymentChannel,\n        string memory _payerEmail\n    ) public {\n        require(msg.sender == owner, \"Anda tidak memiliki akses\");\n        pg.push(\n            PG(\n                _extID,\n                _paymentMethod,\n                _amount,\n                _status,\n                _currency,\n                _paymentChannel,\n                _payerEmail,\n                block.timestamp\n            )\n        );\n    }\n\n    function getPG() public view returns (PG[] memory) {\n        PG[] memory result = new PG[](pg.length);\n        for (uint256 i = 0; i < pg.length; i++) {\n            result[i] = pg[i];\n        }\n        return result;\n    }\n\n    function checkPayment(address _walletAddress) public view returns (bool) {\n        uint256 lastPayment = 0;\n        uint256 oneMonthInSeconds = 2592000; // 30 d x 24 h x 60 m x 60 s\n        for (uint256 i = 0; i < zvoice.length; i++) {\n            if (zvoice[i].walletAddress == _walletAddress) {\n                if (zvoice[i].date > lastPayment) {\n                    lastPayment = zvoice[i].date;\n                }\n            }\n        }\n        return (block.timestamp - lastPayment >= oneMonthInSeconds);\n    }\n\n    function verifyFile(string memory _ipfsHash) public view returns (bool) {\n        bool valid = false;\n        for (uint256 i = 0; i < zvoice.length; i++) {\n            if (\n                keccak256(abi.encodePacked(zvoice[i].ipfsHash)) ==\n                keccak256(abi.encodePacked(_ipfsHash))\n            ) {\n                valid = true;\n                break;\n            }\n        }\n        return valid;\n    }\n\n    function getAll() public view returns (ZakatIVC[] memory) {\n        ZakatIVC[] memory result = new ZakatIVC[](zvoice.length);\n        for (uint256 i = 0; i < zvoice.length; i++) {\n            result[i] = zvoice[i];\n        }\n        return result;\n    }\n\n    function getHistory(address _walletAddress)\n        public\n        view\n        returns (\n            string[] memory,\n            uint256[] memory,\n            uint256[] memory,\n            string[] memory\n        )\n    {\n        // require(msg.sender == _walletAddress, \"Address yang dimasukkan tidak sesuai dengan address anda\");\n        uint256 count = 0;\n        for (uint256 j = 0; j < zvoice.length; j++) {\n            if (zvoice[j].walletAddress == _walletAddress) {\n                count++;\n            }\n        }\n        string[] memory _zakatID = new string[](count);\n        string[] memory _ipfsHash = new string[](count);\n        uint256[] memory _date = new uint256[](count);\n        uint256[] memory _amount = new uint256[](count);\n        uint256 i = 0;\n        for (uint256 j = 0; j < zvoice.length; j++) {\n            if (zvoice[j].walletAddress == _walletAddress) {\n                _zakatID[i] = zvoice[j].zakatID;\n                _date[i] = zvoice[j].date;\n                _amount[i] = zvoice[j].amount;\n                _ipfsHash[i] = zvoice[j].ipfsHash;\n                i++;\n            }\n        }\n        return (_zakatID, _date, _amount, _ipfsHash);\n    }\n}\n\n// ZAKAT-5215, JAJANG, jajang@gmail.com, 08123457789, 2500, qjwkdjwqkdjqwkjw\n// ZAKAT-1634, JAJANG, jajang@gmail.com, 08123457789, 2500, qmkdmqkmdkqdasfa\n// ZAKAT-1212, JAJANG, jajang@gmail.com, 08123457789, 2500\n// ZAKAT-4123, MUSANG, musang@gmail.com, 08123457789, 5000, qkwdlwqdlqwmdqlwm\n// ZAKAT-7724, EKOR, ekor@gmail.com, 08123457789, 10000\n",
  "sourcePath": "/home/ardias/Desktop/Development/Blockchain/TA/zakat/contracts/Zakat.sol",
  "compiler": {
    "name": "solc",
    "version": "0.8.17+commit.8df45f5f.Emscripten.clang"
  },
  "schemaVersion": "3.4.11",
  "updatedAt": "2023-02-06T06:02:09.603Z",
  "networkType": "ethereum",
  "devdoc": {
    "kind": "dev",
    "methods": {},
    "version": 1
  },
  "userdoc": {
    "kind": "user",
    "methods": {},
    "version": 1
  }
}