{
  "contractName": "Zakat",
  "abi": [
    {
      "inputs": [],
      "stateMutability": "nonpayable",
      "type": "constructor"
    },
    {
      "inputs": [
        {
          "internalType": "uint256",
          "name": "",
          "type": "uint256"
        }
      ],
      "name": "pg",
      "outputs": [
        {
          "internalType": "string",
          "name": "extID",
          "type": "string"
        },
        {
          "internalType": "string",
          "name": "paymentMethod",
          "type": "string"
        },
        {
          "internalType": "uint256",
          "name": "amount",
          "type": "uint256"
        },
        {
          "internalType": "bool",
          "name": "status",
          "type": "bool"
        },
        {
          "internalType": "string",
          "name": "currency",
          "type": "string"
        },
        {
          "internalType": "string",
          "name": "paymentChannel",
          "type": "string"
        },
        {
          "internalType": "string",
          "name": "payerEmail",
          "type": "string"
        },
        {
          "internalType": "uint256",
          "name": "date",
          "type": "uint256"
        }
      ],
      "stateMutability": "view",
      "type": "function",
      "constant": true
    },
    {
      "inputs": [
        {
          "internalType": "uint256",
          "name": "",
          "type": "uint256"
        }
      ],
      "name": "zvoice",
      "outputs": [
        {
          "internalType": "address",
          "name": "walletAddress",
          "type": "address"
        },
        {
          "internalType": "string",
          "name": "zakatID",
          "type": "string"
        },
        {
          "internalType": "string",
          "name": "name",
          "type": "string"
        },
        {
          "internalType": "string",
          "name": "email",
          "type": "string"
        },
        {
          "internalType": "string",
          "name": "phoneNum",
          "type": "string"
        },
        {
          "internalType": "uint256",
          "name": "amount",
          "type": "uint256"
        },
        {
          "internalType": "uint256",
          "name": "date",
          "type": "uint256"
        },
        {
          "internalType": "bool",
          "name": "statusPayment",
          "type": "bool"
        },
        {
          "internalType": "string",
          "name": "ipfsHash",
          "type": "string"
        }
      ],
      "stateMutability": "view",
      "type": "function",
      "constant": true
    },
    {
      "inputs": [
        {
          "internalType": "string",
          "name": "_zakatID",
          "type": "string"
        },
        {
          "internalType": "string",
          "name": "_name",
          "type": "string"
        },
        {
          "internalType": "string",
          "name": "_email",
          "type": "string"
        },
        {
          "internalType": "string",
          "name": "_phoneNum",
          "type": "string"
        },
        {
          "internalType": "uint256",
          "name": "_amount",
          "type": "uint256"
        },
        {
          "internalType": "string",
          "name": "_ipfsHash",
          "type": "string"
        }
      ],
      "name": "store",
      "outputs": [],
      "stateMutability": "nonpayable",
      "type": "function"
    },
    {
      "inputs": [
        {
          "internalType": "string",
          "name": "_extID",
          "type": "string"
        },
        {
          "internalType": "string",
          "name": "_paymentMethod",
          "type": "string"
        },
        {
          "internalType": "uint256",
          "name": "_amount",
          "type": "uint256"
        },
        {
          "internalType": "bool",
          "name": "_status",
          "type": "bool"
        },
        {
          "internalType": "string",
          "name": "_currency",
          "type": "string"
        },
        {
          "internalType": "string",
          "name": "_paymentChannel",
          "type": "string"
        },
        {
          "internalType": "string",
          "name": "_payerEmail",
          "type": "string"
        }
      ],
      "name": "storePG",
      "outputs": [],
      "stateMutability": "nonpayable",
      "type": "function"
    },
    {
      "inputs": [],
      "name": "getPG",
      "outputs": [
        {
          "components": [
            {
              "internalType": "string",
              "name": "extID",
              "type": "string"
            },
            {
              "internalType": "string",
              "name": "paymentMethod",
              "type": "string"
            },
            {
              "internalType": "uint256",
              "name": "amount",
              "type": "uint256"
            },
            {
              "internalType": "bool",
              "name": "status",
              "type": "bool"
            },
            {
              "internalType": "string",
              "name": "currency",
              "type": "string"
            },
            {
              "internalType": "string",
              "name": "paymentChannel",
              "type": "string"
            },
            {
              "internalType": "string",
              "name": "payerEmail",
              "type": "string"
            },
            {
              "internalType": "uint256",
              "name": "date",
              "type": "uint256"
            }
          ],
          "internalType": "struct Zakat.PG[]",
          "name": "",
          "type": "tuple[]"
        }
      ],
      "stateMutability": "view",
      "type": "function",
      "constant": true
    },
    {
      "inputs": [
        {
          "internalType": "address",
          "name": "_walletAddress",
          "type": "address"
        }
      ],
      "name": "checkPayment",
      "outputs": [
        {
          "internalType": "bool",
          "name": "",
          "type": "bool"
        }
      ],
      "stateMutability": "view",
      "type": "function",
      "constant": true
    },
    {
      "inputs": [
        {
          "internalType": "string",
          "name": "_ipfsHash",
          "type": "string"
        }
      ],
      "name": "verifyFile",
      "outputs": [
        {
          "internalType": "bool",
          "name": "",
          "type": "bool"
        }
      ],
      "stateMutability": "view",
      "type": "function",
      "constant": true
    },
    {
      "inputs": [],
      "name": "getAll",
      "outputs": [
        {
          "components": [
            {
              "internalType": "address",
              "name": "walletAddress",
              "type": "address"
            },
            {
              "internalType": "string",
              "name": "zakatID",
              "type": "string"
            },
            {
              "internalType": "string",
              "name": "name",
              "type": "string"
            },
            {
              "internalType": "string",
              "name": "email",
              "type": "string"
            },
            {
              "internalType": "string",
              "name": "phoneNum",
              "type": "string"
            },
            {
              "internalType": "uint256",
              "name": "amount",
              "type": "uint256"
            },
            {
              "internalType": "uint256",
              "name": "date",
              "type": "uint256"
            },
            {
              "internalType": "bool",
              "name": "statusPayment",
              "type": "bool"
            },
            {
              "internalType": "string",
              "name": "ipfsHash",
              "type": "string"
            }
          ],
          "internalType": "struct Zakat.ZakatIVC[]",
          "name": "",
          "type": "tuple[]"
        }
      ],
      "stateMutability": "view",
      "type": "function",
      "constant": true
    },
    {
      "inputs": [
        {
          "internalType": "address",
          "name": "_walletAddress",
          "type": "address"
        }
      ],
      "name": "getHistory",
      "outputs": [
        {
          "internalType": "string[]",
          "name": "",
          "type": "string[]"
        },
        {
          "internalType": "uint256[]",
          "name": "",
          "type": "uint256[]"
        },
        {
          "internalType": "uint256[]",
          "name": "",
          "type": "uint256[]"
        },
        {
          "internalType": "string[]",
          "name": "",
          "type": "string[]"
        }
      ],
      "stateMutability": "view",
      "type": "function",
      "constant": true
    }
  ],
  "bytecode": "0x608060405234801561001057600080fd5b5033600160006101000a81548173ffffffffffffffffffffffffffffffffffffffff021916908373ffffffffffffffffffffffffffffffffffffffff160217905550612cfb806100616000396000f3fe608060405234801561001057600080fd5b50600436106100935760003560e01c806353ed51431161006657806353ed51431461011e5780635960b81e1461013c57806380396811146101745780638d001087146101a7578063b0271023146101de57610093565b806303e6a6f6146100985780631c1b2662146100b45780633b56fdc6146100d05780633d9bf09314610100575b600080fd5b6100b260048036038101906100ad9190611c96565b61020e565b005b6100ce60048036038101906100c99190611dc4565b6103b2565b005b6100ea60048036038101906100e59190611f3b565b61052a565b6040516100f79190611f77565b60405180910390f35b610108610644565b60405161011591906121bd565b60405180910390f35b610126610a23565b6040516101339190612391565b60405180910390f35b610156600480360381019061015191906123b3565b610e58565b60405161016b99989796959493929190612448565b60405180910390f35b61018e60048036038101906101899190611f3b565b61118b565b60405161019e9493929190612669565b60405180910390f35b6101c160048036038101906101bc91906123b3565b611662565b6040516101d59897969594939291906126ca565b60405180910390f35b6101f860048036038101906101f3919061276b565b61196f565b6040516102059190611f77565b60405180910390f35b600160009054906101000a900473ffffffffffffffffffffffffffffffffffffffff1673ffffffffffffffffffffffffffffffffffffffff163373ffffffffffffffffffffffffffffffffffffffff161461029e576040517f08c379a000000000000000000000000000000000000000000000000000000000815260040161029590612800565b60405180910390fd5b60036040518061010001604052808981526020018881526020018781526020018615158152602001858152602001848152602001838152602001428152509080600181540180825580915050600190039060005260206000209060080201600090919091909150600082015181600001908161031a9190612a2c565b5060208201518160010190816103309190612a2c565b506040820151816002015560608201518160030160006101000a81548160ff02191690831515021790555060808201518160040190816103709190612a2c565b5060a08201518160050190816103869190612a2c565b5060c082015181600601908161039c9190612a2c565b5060e08201518160070155505050505050505050565b60026040518061012001604052803373ffffffffffffffffffffffffffffffffffffffff16815260200188815260200187815260200186815260200185815260200184815260200142815260200160011515815260200183815250908060018154018082558091505060019003906000526020600020906009020160009091909190915060008201518160000160006101000a81548173ffffffffffffffffffffffffffffffffffffffff021916908373ffffffffffffffffffffffffffffffffffffffff16021790555060208201518160010190816104929190612a2c565b5060408201518160020190816104a89190612a2c565b5060608201518160030190816104be9190612a2c565b5060808201518160040190816104d49190612a2c565b5060a0820151816005015560c0820151816006015560e08201518160070160006101000a81548160ff02191690831515021790555061010082015181600801908161051f9190612a2c565b505050505050505050565b60008060009050600062278d00905060005b60028054905081101561062b578473ffffffffffffffffffffffffffffffffffffffff166002828154811061057457610573612afe565b5b906000526020600020906009020160000160009054906101000a900473ffffffffffffffffffffffffffffffffffffffff1673ffffffffffffffffffffffffffffffffffffffff16036106185782600282815481106105d6576105d5612afe565b5b9060005260206000209060090201600601541115610617576002818154811061060257610601612afe565b5b90600052602060002090600902016006015492505b5b808061062390612b5c565b91505061053c565b508082426106399190612ba4565b101592505050919050565b6060600060038054905067ffffffffffffffff81111561066757610666611afd565b5b6040519080825280602002602001820160405280156106a057816020015b61068d611a23565b8152602001906001900390816106855790505b50905060005b600380549050811015610a1b57600381815481106106c7576106c6612afe565b5b9060005260206000209060080201604051806101000160405290816000820180546106f19061284f565b80601f016020809104026020016040519081016040528092919081815260200182805461071d9061284f565b801561076a5780601f1061073f5761010080835404028352916020019161076a565b820191906000526020600020905b81548152906001019060200180831161074d57829003601f168201915b505050505081526020016001820180546107839061284f565b80601f01602080910402602001604051908101604052809291908181526020018280546107af9061284f565b80156107fc5780601f106107d1576101008083540402835291602001916107fc565b820191906000526020600020905b8154815290600101906020018083116107df57829003601f168201915b50505050508152602001600282015481526020016003820160009054906101000a900460ff1615151515815260200160048201805461083a9061284f565b80601f01602080910402602001604051908101604052809291908181526020018280546108669061284f565b80156108b35780601f10610888576101008083540402835291602001916108b3565b820191906000526020600020905b81548152906001019060200180831161089657829003601f168201915b505050505081526020016005820180546108cc9061284f565b80601f01602080910402602001604051908101604052809291908181526020018280546108f89061284f565b80156109455780601f1061091a57610100808354040283529160200191610945565b820191906000526020600020905b81548152906001019060200180831161092857829003601f168201915b5050505050815260200160068201805461095e9061284f565b80601f016020809104026020016040519081016040528092919081815260200182805461098a9061284f565b80156109d75780601f106109ac576101008083540402835291602001916109d7565b820191906000526020600020905b8154815290600101906020018083116109ba57829003601f168201915b505050505081526020016007820154815250508282815181106109fd576109fc612afe565b5b60200260200101819052508080610a1390612b5c565b9150506106a6565b508091505090565b6060600060028054905067ffffffffffffffff811115610a4657610a45611afd565b5b604051908082528060200260200182016040528015610a7f57816020015b610a6c611a6a565b815260200190600190039081610a645790505b50905060005b600280549050811015610e505760028181548110610aa657610aa5612afe565b5b9060005260206000209060090201604051806101200160405290816000820160009054906101000a900473ffffffffffffffffffffffffffffffffffffffff1673ffffffffffffffffffffffffffffffffffffffff1673ffffffffffffffffffffffffffffffffffffffff168152602001600182018054610b269061284f565b80601f0160208091040260200160405190810160405280929190818152602001828054610b529061284f565b8015610b9f5780601f10610b7457610100808354040283529160200191610b9f565b820191906000526020600020905b815481529060010190602001808311610b8257829003601f168201915b50505050508152602001600282018054610bb89061284f565b80601f0160208091040260200160405190810160405280929190818152602001828054610be49061284f565b8015610c315780601f10610c0657610100808354040283529160200191610c31565b820191906000526020600020905b815481529060010190602001808311610c1457829003601f168201915b50505050508152602001600382018054610c4a9061284f565b80601f0160208091040260200160405190810160405280929190818152602001828054610c769061284f565b8015610cc35780601f10610c9857610100808354040283529160200191610cc3565b820191906000526020600020905b815481529060010190602001808311610ca657829003601f168201915b50505050508152602001600482018054610cdc9061284f565b80601f0160208091040260200160405190810160405280929190818152602001828054610d089061284f565b8015610d555780601f10610d2a57610100808354040283529160200191610d55565b820191906000526020600020905b815481529060010190602001808311610d3857829003601f168201915b5050505050815260200160058201548152602001600682015481526020016007820160009054906101000a900460ff16151515158152602001600882018054610d9d9061284f565b80601f0160208091040260200160405190810160405280929190818152602001828054610dc99061284f565b8015610e165780601f10610deb57610100808354040283529160200191610e16565b820191906000526020600020905b815481529060010190602001808311610df957829003601f168201915b505050505081525050828281518110610e3257610e31612afe565b5b60200260200101819052508080610e4890612b5c565b915050610a85565b508091505090565b60028181548110610e6857600080fd5b90600052602060002090600902016000915090508060000160009054906101000a900473ffffffffffffffffffffffffffffffffffffffff1690806001018054610eb19061284f565b80601f0160208091040260200160405190810160405280929190818152602001828054610edd9061284f565b8015610f2a5780601f10610eff57610100808354040283529160200191610f2a565b820191906000526020600020905b815481529060010190602001808311610f0d57829003601f168201915b505050505090806002018054610f3f9061284f565b80601f0160208091040260200160405190810160405280929190818152602001828054610f6b9061284f565b8015610fb85780601f10610f8d57610100808354040283529160200191610fb8565b820191906000526020600020905b815481529060010190602001808311610f9b57829003601f168201915b505050505090806003018054610fcd9061284f565b80601f0160208091040260200160405190810160405280929190818152602001828054610ff99061284f565b80156110465780601f1061101b57610100808354040283529160200191611046565b820191906000526020600020905b81548152906001019060200180831161102957829003601f168201915b50505050509080600401805461105b9061284f565b80601f01602080910402602001604051908101604052809291908181526020018280546110879061284f565b80156110d45780601f106110a9576101008083540402835291602001916110d4565b820191906000526020600020905b8154815290600101906020018083116110b757829003601f168201915b5050505050908060050154908060060154908060070160009054906101000a900460ff16908060080180546111089061284f565b80601f01602080910402602001604051908101604052809291908181526020018280546111349061284f565b80156111815780601f1061115657610100808354040283529160200191611181565b820191906000526020600020905b81548152906001019060200180831161116457829003601f168201915b5050505050905089565b6060806060806000805b60028054905081101561123c578673ffffffffffffffffffffffffffffffffffffffff16600282815481106111cd576111cc612afe565b5b906000526020600020906009020160000160009054906101000a900473ffffffffffffffffffffffffffffffffffffffff1673ffffffffffffffffffffffffffffffffffffffff160361122957818061122590612b5c565b9250505b808061123490612b5c565b915050611195565b5060008167ffffffffffffffff81111561125957611258611afd565b5b60405190808252806020026020018201604052801561128c57816020015b60608152602001906001900390816112775790505b50905060008267ffffffffffffffff8111156112ab576112aa611afd565b5b6040519080825280602002602001820160405280156112de57816020015b60608152602001906001900390816112c95790505b50905060008367ffffffffffffffff8111156112fd576112fc611afd565b5b60405190808252806020026020018201604052801561132b5781602001602082028036833780820191505090505b50905060008467ffffffffffffffff81111561134a57611349611afd565b5b6040519080825280602002602001820160405280156113785781602001602082028036833780820191505090505b5090506000805b600280549050811015611648578b73ffffffffffffffffffffffffffffffffffffffff16600282815481106113b7576113b6612afe565b5b906000526020600020906009020160000160009054906101000a900473ffffffffffffffffffffffffffffffffffffffff1673ffffffffffffffffffffffffffffffffffffffff1603611635576002818154811061141857611417612afe565b5b906000526020600020906009020160010180546114349061284f565b80601f01602080910402602001604051908101604052809291908181526020018280546114609061284f565b80156114ad5780601f10611482576101008083540402835291602001916114ad565b820191906000526020600020905b81548152906001019060200180831161149057829003601f168201915b50505050508683815181106114c5576114c4612afe565b5b6020026020010181905250600281815481106114e4576114e3612afe565b5b90600052602060002090600902016006015484838151811061150957611508612afe565b5b6020026020010181815250506002818154811061152957611528612afe565b5b90600052602060002090600902016005015483838151811061154e5761154d612afe565b5b6020026020010181815250506002818154811061156e5761156d612afe565b5b9060005260206000209060090201600801805461158a9061284f565b80601f01602080910402602001604051908101604052809291908181526020018280546115b69061284f565b80156116035780601f106115d857610100808354040283529160200191611603565b820191906000526020600020905b8154815290600101906020018083116115e657829003601f168201915b505050505085838151811061161b5761161a612afe565b5b6020026020010181905250818061163190612b5c565b9250505b808061164090612b5c565b91505061137f565b508483838699509950995099505050505050509193509193565b6003818154811061167257600080fd5b90600052602060002090600802016000915090508060000180546116959061284f565b80601f01602080910402602001604051908101604052809291908181526020018280546116c19061284f565b801561170e5780601f106116e35761010080835404028352916020019161170e565b820191906000526020600020905b8154815290600101906020018083116116f157829003601f168201915b5050505050908060010180546117239061284f565b80601f016020809104026020016040519081016040528092919081815260200182805461174f9061284f565b801561179c5780601f106117715761010080835404028352916020019161179c565b820191906000526020600020905b81548152906001019060200180831161177f57829003601f168201915b5050505050908060020154908060030160009054906101000a900460ff16908060040180546117ca9061284f565b80601f01602080910402602001604051908101604052809291908181526020018280546117f69061284f565b80156118435780601f1061181857610100808354040283529160200191611843565b820191906000526020600020905b81548152906001019060200180831161182657829003601f168201915b5050505050908060050180546118589061284f565b80601f01602080910402602001604051908101604052809291908181526020018280546118849061284f565b80156118d15780601f106118a6576101008083540402835291602001916118d1565b820191906000526020600020905b8154815290600101906020018083116118b457829003601f168201915b5050505050908060060180546118e69061284f565b80601f01602080910402602001604051908101604052809291908181526020018280546119129061284f565b801561195f5780601f106119345761010080835404028352916020019161195f565b820191906000526020600020905b81548152906001019060200180831161194257829003601f168201915b5050505050908060070154905088565b6000806000905060005b600280549050811015611a1957836040516020016119979190612c14565b60405160208183030381529060405280519060200120600282815481106119c1576119c0612afe565b5b90600052602060002090600902016008016040516020016119e29190612cae565b6040516020818303038152906040528051906020012003611a065760019150611a19565b8080611a1190612b5c565b915050611979565b5080915050919050565b604051806101000160405280606081526020016060815260200160008152602001600015158152602001606081526020016060815260200160608152602001600081525090565b604051806101200160405280600073ffffffffffffffffffffffffffffffffffffffff168152602001606081526020016060815260200160608152602001606081526020016000815260200160008152602001600015158152602001606081525090565b6000604051905090565b600080fd5b600080fd5b600080fd5b600080fd5b6000601f19601f8301169050919050565b7f4e487b7100000000000000000000000000000000000000000000000000000000600052604160045260246000fd5b611b3582611aec565b810181811067ffffffffffffffff82111715611b5457611b53611afd565b5b80604052505050565b6000611b67611ace565b9050611b738282611b2c565b919050565b600067ffffffffffffffff821115611b9357611b92611afd565b5b611b9c82611aec565b9050602081019050919050565b82818337600083830152505050565b6000611bcb611bc684611b78565b611b5d565b905082815260208101848484011115611be757611be6611ae7565b5b611bf2848285611ba9565b509392505050565b600082601f830112611c0f57611c0e611ae2565b5b8135611c1f848260208601611bb8565b91505092915050565b6000819050919050565b611c3b81611c28565b8114611c4657600080fd5b50565b600081359050611c5881611c32565b92915050565b60008115159050919050565b611c7381611c5e565b8114611c7e57600080fd5b50565b600081359050611c9081611c6a565b92915050565b600080600080600080600060e0888a031215611cb557611cb4611ad8565b5b600088013567ffffffffffffffff811115611cd357611cd2611add565b5b611cdf8a828b01611bfa565b975050602088013567ffffffffffffffff811115611d0057611cff611add565b5b611d0c8a828b01611bfa565b9650506040611d1d8a828b01611c49565b9550506060611d2e8a828b01611c81565b945050608088013567ffffffffffffffff811115611d4f57611d4e611add565b5b611d5b8a828b01611bfa565b93505060a088013567ffffffffffffffff811115611d7c57611d7b611add565b5b611d888a828b01611bfa565b92505060c088013567ffffffffffffffff811115611da957611da8611add565b5b611db58a828b01611bfa565b91505092959891949750929550565b60008060008060008060c08789031215611de157611de0611ad8565b5b600087013567ffffffffffffffff811115611dff57611dfe611add565b5b611e0b89828a01611bfa565b965050602087013567ffffffffffffffff811115611e2c57611e2b611add565b5b611e3889828a01611bfa565b955050604087013567ffffffffffffffff811115611e5957611e58611add565b5b611e6589828a01611bfa565b945050606087013567ffffffffffffffff811115611e8657611e85611add565b5b611e9289828a01611bfa565b9350506080611ea389828a01611c49565b92505060a087013567ffffffffffffffff811115611ec457611ec3611add565b5b611ed089828a01611bfa565b9150509295509295509295565b600073ffffffffffffffffffffffffffffffffffffffff82169050919050565b6000611f0882611edd565b9050919050565b611f1881611efd565b8114611f2357600080fd5b50565b600081359050611f3581611f0f565b92915050565b600060208284031215611f5157611f50611ad8565b5b6000611f5f84828501611f26565b91505092915050565b611f7181611c5e565b82525050565b6000602082019050611f8c6000830184611f68565b92915050565b600081519050919050565b600082825260208201905092915050565b6000819050602082019050919050565b600081519050919050565b600082825260208201905092915050565b60005b83811015611ff8578082015181840152602081019050611fdd565b60008484015250505050565b600061200f82611fbe565b6120198185611fc9565b9350612029818560208601611fda565b61203281611aec565b840191505092915050565b61204681611c28565b82525050565b61205581611c5e565b82525050565b60006101008301600083015184820360008601526120798282612004565b915050602083015184820360208601526120938282612004565b91505060408301516120a8604086018261203d565b5060608301516120bb606086018261204c565b50608083015184820360808601526120d38282612004565b91505060a083015184820360a08601526120ed8282612004565b91505060c083015184820360c08601526121078282612004565b91505060e083015161211c60e086018261203d565b508091505092915050565b6000612133838361205b565b905092915050565b6000602082019050919050565b600061215382611f92565b61215d8185611f9d565b93508360208202850161216f85611fae565b8060005b858110156121ab578484038952815161218c8582612127565b94506121978361213b565b925060208a01995050600181019050612173565b50829750879550505050505092915050565b600060208201905081810360008301526121d78184612148565b905092915050565b600081519050919050565b600082825260208201905092915050565b6000819050602082019050919050565b61221481611efd565b82525050565b600061012083016000830151612233600086018261220b565b506020830151848203602086015261224b8282612004565b915050604083015184820360408601526122658282612004565b9150506060830151848203606086015261227f8282612004565b915050608083015184820360808601526122998282612004565b91505060a08301516122ae60a086018261203d565b5060c08301516122c160c086018261203d565b5060e08301516122d460e086018261204c565b506101008301518482036101008601526122ee8282612004565b9150508091505092915050565b6000612307838361221a565b905092915050565b6000602082019050919050565b6000612327826121df565b61233181856121ea565b935083602082028501612343856121fb565b8060005b8581101561237f578484038952815161236085826122fb565b945061236b8361230f565b925060208a01995050600181019050612347565b50829750879550505050505092915050565b600060208201905081810360008301526123ab818461231c565b905092915050565b6000602082840312156123c9576123c8611ad8565b5b60006123d784828501611c49565b91505092915050565b6123e981611efd565b82525050565b600082825260208201905092915050565b600061240b82611fbe565b61241581856123ef565b9350612425818560208601611fda565b61242e81611aec565b840191505092915050565b61244281611c28565b82525050565b60006101208201905061245e600083018c6123e0565b8181036020830152612470818b612400565b90508181036040830152612484818a612400565b905081810360608301526124988189612400565b905081810360808301526124ac8188612400565b90506124bb60a0830187612439565b6124c860c0830186612439565b6124d560e0830185611f68565b8181036101008301526124e88184612400565b90509a9950505050505050505050565b600081519050919050565b600082825260208201905092915050565b6000819050602082019050919050565b60006125308383612004565b905092915050565b6000602082019050919050565b6000612550826124f8565b61255a8185612503565b93508360208202850161256c85612514565b8060005b858110156125a857848403895281516125898582612524565b945061259483612538565b925060208a01995050600181019050612570565b50829750879550505050505092915050565b600081519050919050565b600082825260208201905092915050565b6000819050602082019050919050565b60006125f2838361203d565b60208301905092915050565b6000602082019050919050565b6000612616826125ba565b61262081856125c5565b935061262b836125d6565b8060005b8381101561265c57815161264388826125e6565b975061264e836125fe565b92505060018101905061262f565b5085935050505092915050565b600060808201905081810360008301526126838187612545565b90508181036020830152612697818661260b565b905081810360408301526126ab818561260b565b905081810360608301526126bf8184612545565b905095945050505050565b60006101008201905081810360008301526126e5818b612400565b905081810360208301526126f9818a612400565b90506127086040830189612439565b6127156060830188611f68565b81810360808301526127278187612400565b905081810360a083015261273b8186612400565b905081810360c083015261274f8185612400565b905061275e60e0830184612439565b9998505050505050505050565b60006020828403121561278157612780611ad8565b5b600082013567ffffffffffffffff81111561279f5761279e611add565b5b6127ab84828501611bfa565b91505092915050565b7f416e646120746964616b206d656d696c696b6920616b73657300000000000000600082015250565b60006127ea6019836123ef565b91506127f5826127b4565b602082019050919050565b60006020820190508181036000830152612819816127dd565b9050919050565b7f4e487b7100000000000000000000000000000000000000000000000000000000600052602260045260246000fd5b6000600282049050600182168061286757607f821691505b60208210810361287a57612879612820565b5b50919050565b60008190508160005260206000209050919050565b60006020601f8301049050919050565b600082821b905092915050565b6000600883026128e27fffffffffffffffffffffffffffffffffffffffffffffffffffffffffffffffff826128a5565b6128ec86836128a5565b95508019841693508086168417925050509392505050565b6000819050919050565b600061292961292461291f84611c28565b612904565b611c28565b9050919050565b6000819050919050565b6129438361290e565b61295761294f82612930565b8484546128b2565b825550505050565b600090565b61296c61295f565b61297781848461293a565b505050565b5b8181101561299b57612990600082612964565b60018101905061297d565b5050565b601f8211156129e0576129b181612880565b6129ba84612895565b810160208510156129c9578190505b6129dd6129d585612895565b83018261297c565b50505b505050565b600082821c905092915050565b6000612a03600019846008026129e5565b1980831691505092915050565b6000612a1c83836129f2565b9150826002028217905092915050565b612a3582611fbe565b67ffffffffffffffff811115612a4e57612a4d611afd565b5b612a58825461284f565b612a6382828561299f565b600060209050601f831160018114612a965760008415612a84578287015190505b612a8e8582612a10565b865550612af6565b601f198416612aa486612880565b60005b82811015612acc57848901518255600182019150602085019450602081019050612aa7565b86831015612ae95784890151612ae5601f8916826129f2565b8355505b6001600288020188555050505b505050505050565b7f4e487b7100000000000000000000000000000000000000000000000000000000600052603260045260246000fd5b7f4e487b7100000000000000000000000000000000000000000000000000000000600052601160045260246000fd5b6000612b6782611c28565b91507fffffffffffffffffffffffffffffffffffffffffffffffffffffffffffffffff8203612b9957612b98612b2d565b5b600182019050919050565b6000612baf82611c28565b9150612bba83611c28565b9250828203905081811115612bd257612bd1612b2d565b5b92915050565b600081905092915050565b6000612bee82611fbe565b612bf88185612bd8565b9350612c08818560208601611fda565b80840191505092915050565b6000612c208284612be3565b915081905092915050565b60008154612c388161284f565b612c428186612bd8565b94506001821660008114612c5d5760018114612c7257612ca5565b60ff1983168652811515820286019350612ca5565b612c7b85612880565b60005b83811015612c9d57815481890152600182019150602081019050612c7e565b838801955050505b50505092915050565b6000612cba8284612c2b565b91508190509291505056fea26469706673582212205cf1eaaf000ce647f700f57edf693ef8e6586821857418ecf8cb761417ca8d3964736f6c63430008110033",
  "immutableReferences": {},
  "source": "// SPDX-License-Identifier: Unlicensed\n\npragma solidity ^0.8.7;\n\ncontract Zakat {\n    uint256 currentTime;\n    address owner;\n\n    constructor() {\n        owner = msg.sender;\n    }\n\n    struct ZakatIVC {\n        address walletAddress;\n        string zakatID;\n        string name;\n        string email;\n        string phoneNum;\n        uint256 amount;\n        uint256 date;\n        bool statusPayment;\n        string ipfsHash;\n    }\n\n    struct PG {\n        string extID;\n        string paymentMethod;\n        uint256 amount;\n        bool status;\n        string currency;\n        string paymentChannel;\n        string payerEmail;\n        uint256 date;\n    }\n\n    ZakatIVC[] public zvoice;\n    PG[] public pg;\n\n    function store(\n        string memory _zakatID,\n        string memory _name,\n        string memory _email,\n        string memory _phoneNum,\n        uint256 _amount,\n        string memory _ipfsHash\n    ) public {\n        // bool status = checkPayment(msg.sender);\n        // require(status == true, \"Tunggu bulan berikutnya\");\n        zvoice.push(\n            ZakatIVC(\n                msg.sender,\n                _zakatID,\n                _name,\n                _email,\n                _phoneNum,\n                _amount,\n                block.timestamp,\n                true,\n                _ipfsHash\n            )\n        );\n    }\n\n    function storePG(\n        string memory _extID,\n        string memory _paymentMethod,\n        uint256 _amount,\n        bool _status,\n        string memory _currency,\n        string memory _paymentChannel,\n        string memory _payerEmail\n    ) public {\n        require(msg.sender == owner, \"Anda tidak memiliki akses\");\n        pg.push(\n            PG(\n                _extID,\n                _paymentMethod,\n                _amount,\n                _status,\n                _currency,\n                _paymentChannel,\n                _payerEmail,\n                block.timestamp\n            )\n        );\n    }\n\n    function getPG() public view returns (PG[] memory) {\n        PG[] memory result = new PG[](pg.length);\n        for (uint256 i = 0; i < pg.length; i++) {\n            result[i] = pg[i];\n        }\n        return result;\n    }\n\n    function checkPayment(address _walletAddress) public view returns (bool) {\n        uint256 lastPayment = 0;\n        uint256 oneMonthInSeconds = 2592000; // 30 d x 24 h x 60 m x 60 s\n        for (uint256 i = 0; i < zvoice.length; i++) {\n            if (zvoice[i].walletAddress == _walletAddress) {\n                if (zvoice[i].date > lastPayment) {\n                    lastPayment = zvoice[i].date;\n                }\n            }\n        }\n        return (block.timestamp - lastPayment >= oneMonthInSeconds);\n    }\n\n    function verifyFile(string memory _ipfsHash) public view returns (bool) {\n        bool valid = false;\n        for (uint256 i = 0; i < zvoice.length; i++) {\n            if (\n                keccak256(abi.encodePacked(zvoice[i].ipfsHash)) ==\n                keccak256(abi.encodePacked(_ipfsHash))\n            ) {\n                valid = true;\n                break;\n            }\n        }\n        return valid;\n    }\n\n    function getAll() public view returns (ZakatIVC[] memory) {\n        ZakatIVC[] memory result = new ZakatIVC[](zvoice.length);\n        for (uint256 i = 0; i < zvoice.length; i++) {\n            result[i] = zvoice[i];\n        }\n        return result;\n    }\n\n    function getHistory(address _walletAddress)\n        public\n        view\n        returns (\n            string[] memory,\n            uint256[] memory,\n            uint256[] memory,\n            string[] memory\n        )\n    {\n        // require(msg.sender == _walletAddress, \"Address yang dimasukkan tidak sesuai dengan address anda\");\n        uint256 count = 0;\n        for (uint256 j = 0; j < zvoice.length; j++) {\n            if (zvoice[j].walletAddress == _walletAddress) {\n                count++;\n            }\n        }\n        string[] memory _zakatID = new string[](count);\n        string[] memory _ipfsHash = new string[](count);\n        uint256[] memory _date = new uint256[](count);\n        uint256[] memory _amount = new uint256[](count);\n        uint256 i = 0;\n        for (uint256 j = 0; j < zvoice.length; j++) {\n            if (zvoice[j].walletAddress == _walletAddress) {\n                _zakatID[i] = zvoice[j].zakatID;\n                _date[i] = zvoice[j].date;\n                _amount[i] = zvoice[j].amount;\n                _ipfsHash[i] = zvoice[j].ipfsHash;\n                i++;\n            }\n        }\n        return (_zakatID, _date, _amount, _ipfsHash);\n    }\n}\n\n// ZAKAT-5215, JAJANG, jajang@gmail.com, 08123457789, 2500, qjwkdjwqkdjqwkjw\n// ZAKAT-1634, JAJANG, jajang@gmail.com, 08123457789, 2500, qmkdmqkmdkqdasfa\n// ZAKAT-1212, JAJANG, jajang@gmail.com, 08123457789, 2500\n// ZAKAT-4123, MUSANG, musang@gmail.com, 08123457789, 5000, qkwdlwqdlqwmdqlwm\n// ZAKAT-7724, EKOR, ekor@gmail.com, 08123457789, 10000\n",
  "sourcePath": "/home/ardias/Desktop/Development/Blockchain/TA/zakat/contracts/Zakat.sol",
  "compiler": {
    "name": "solc",
    "version": "0.8.17+commit.8df45f5f.Emscripten.clang"
  },
  "schemaVersion": "3.4.11",
  "updatedAt": "2023-02-06T09:20:48.263Z",
  "networkType": "ethereum",
  "devdoc": {
    "kind": "dev",
    "methods": {},
    "version": 1
  },
  "userdoc": {
    "kind": "user",
    "methods": {},
    "version": 1
  }
}